{
  "contractName": "BoxingBoyz",
  "abi": [
    {
      "inputs": [
        {
          "internalType": "string",
          "name": "theBaseURI",
          "type": "string"
        },
        {
          "internalType": "address",
          "name": "owner",
          "type": "address"
        },
        {
          "internalType": "uint256",
          "name": "numToken",
          "type": "uint256"
        }
      ],
      "stateMutability": "nonpayable",
      "type": "constructor"
    },
    {
      "anonymous": false,
      "inputs": [
        {
          "indexed": true,
          "internalType": "address",
          "name": "owner",
          "type": "address"
        },
        {
          "indexed": true,
          "internalType": "address",
          "name": "approved",
          "type": "address"
        },
        {
          "indexed": true,
          "internalType": "uint256",
          "name": "tokenId",
          "type": "uint256"
        }
      ],
      "name": "Approval",
      "type": "event"
    },
    {
      "anonymous": false,
      "inputs": [
        {
          "indexed": true,
          "internalType": "address",
          "name": "owner",
          "type": "address"
        },
        {
          "indexed": true,
          "internalType": "address",
          "name": "operator",
          "type": "address"
        },
        {
          "indexed": false,
          "internalType": "bool",
          "name": "approved",
          "type": "bool"
        }
      ],
      "name": "ApprovalForAll",
      "type": "event"
    },
    {
      "anonymous": false,
      "inputs": [
        {
          "indexed": true,
          "internalType": "address",
          "name": "previousOwner",
          "type": "address"
        },
        {
          "indexed": true,
          "internalType": "address",
          "name": "newOwner",
          "type": "address"
        }
      ],
      "name": "OwnershipTransferred",
      "type": "event"
    },
    {
      "anonymous": false,
      "inputs": [
        {
          "indexed": true,
          "internalType": "address",
          "name": "from",
          "type": "address"
        },
        {
          "indexed": true,
          "internalType": "address",
          "name": "to",
          "type": "address"
        },
        {
          "indexed": true,
          "internalType": "uint256",
          "name": "tokenId",
          "type": "uint256"
        }
      ],
      "name": "Transfer",
      "type": "event"
    },
    {
      "inputs": [
        {
          "internalType": "address",
          "name": "to",
          "type": "address"
        },
        {
          "internalType": "uint256",
          "name": "tokenId",
          "type": "uint256"
        }
      ],
      "name": "approve",
      "outputs": [],
      "stateMutability": "nonpayable",
      "type": "function"
    },
    {
      "inputs": [],
      "name": "availableToken",
      "outputs": [
        {
          "internalType": "uint256",
          "name": "",
          "type": "uint256"
        }
      ],
      "stateMutability": "view",
      "type": "function",
      "constant": true
    },
    {
      "inputs": [
        {
          "internalType": "address",
          "name": "owner",
          "type": "address"
        }
      ],
      "name": "balanceOf",
      "outputs": [
        {
          "internalType": "uint256",
          "name": "",
          "type": "uint256"
        }
      ],
      "stateMutability": "view",
      "type": "function",
      "constant": true
    },
    {
      "inputs": [],
      "name": "baseExtension",
      "outputs": [
        {
          "internalType": "string",
          "name": "",
          "type": "string"
        }
      ],
      "stateMutability": "view",
      "type": "function",
      "constant": true
    },
    {
      "inputs": [
        {
          "internalType": "uint256",
          "name": "tokenId",
          "type": "uint256"
        }
      ],
      "name": "getApproved",
      "outputs": [
        {
          "internalType": "address",
          "name": "",
          "type": "address"
        }
      ],
      "stateMutability": "view",
      "type": "function",
      "constant": true
    },
    {
      "inputs": [
        {
          "internalType": "address",
          "name": "owner",
          "type": "address"
        },
        {
          "internalType": "address",
          "name": "operator",
          "type": "address"
        }
      ],
      "name": "isApprovedForAll",
      "outputs": [
        {
          "internalType": "bool",
          "name": "",
          "type": "bool"
        }
      ],
      "stateMutability": "view",
      "type": "function",
      "constant": true
    },
    {
      "inputs": [],
      "name": "maxPurchaseSize",
      "outputs": [
        {
          "internalType": "uint256",
          "name": "",
          "type": "uint256"
        }
      ],
      "stateMutability": "view",
      "type": "function",
      "constant": true
    },
    {
      "inputs": [],
      "name": "name",
      "outputs": [
        {
          "internalType": "string",
          "name": "",
          "type": "string"
        }
      ],
      "stateMutability": "view",
      "type": "function",
      "constant": true
    },
    {
      "inputs": [],
      "name": "owner",
      "outputs": [
        {
          "internalType": "address",
          "name": "",
          "type": "address"
        }
      ],
      "stateMutability": "view",
      "type": "function",
      "constant": true
    },
    {
      "inputs": [
        {
          "internalType": "uint256",
          "name": "tokenId",
          "type": "uint256"
        }
      ],
      "name": "ownerOf",
      "outputs": [
        {
          "internalType": "address",
          "name": "",
          "type": "address"
        }
      ],
      "stateMutability": "view",
      "type": "function",
      "constant": true
    },
    {
      "inputs": [],
      "name": "price",
      "outputs": [
        {
          "internalType": "uint256",
          "name": "",
          "type": "uint256"
        }
      ],
      "stateMutability": "view",
      "type": "function",
      "constant": true
    },
    {
      "inputs": [],
      "name": "renounceOwnership",
      "outputs": [],
      "stateMutability": "nonpayable",
      "type": "function"
    },
    {
      "inputs": [
        {
          "internalType": "address",
          "name": "from",
          "type": "address"
        },
        {
          "internalType": "address",
          "name": "to",
          "type": "address"
        },
        {
          "internalType": "uint256",
          "name": "tokenId",
          "type": "uint256"
        }
      ],
      "name": "safeTransferFrom",
      "outputs": [],
      "stateMutability": "nonpayable",
      "type": "function"
    },
    {
      "inputs": [
        {
          "internalType": "address",
          "name": "from",
          "type": "address"
        },
        {
          "internalType": "address",
          "name": "to",
          "type": "address"
        },
        {
          "internalType": "uint256",
          "name": "tokenId",
          "type": "uint256"
        },
        {
          "internalType": "bytes",
          "name": "_data",
          "type": "bytes"
        }
      ],
      "name": "safeTransferFrom",
      "outputs": [],
      "stateMutability": "nonpayable",
      "type": "function"
    },
    {
      "inputs": [
        {
          "internalType": "address",
          "name": "operator",
          "type": "address"
        },
        {
          "internalType": "bool",
          "name": "approved",
          "type": "bool"
        }
      ],
      "name": "setApprovalForAll",
      "outputs": [],
      "stateMutability": "nonpayable",
      "type": "function"
    },
    {
      "inputs": [
        {
          "internalType": "bytes4",
          "name": "interfaceId",
          "type": "bytes4"
        }
      ],
      "name": "supportsInterface",
      "outputs": [
        {
          "internalType": "bool",
          "name": "",
          "type": "bool"
        }
      ],
      "stateMutability": "view",
      "type": "function",
      "constant": true
    },
    {
      "inputs": [],
      "name": "symbol",
      "outputs": [
        {
          "internalType": "string",
          "name": "",
          "type": "string"
        }
      ],
      "stateMutability": "view",
      "type": "function",
      "constant": true
    },
    {
      "inputs": [
        {
          "internalType": "uint256",
          "name": "index",
          "type": "uint256"
        }
      ],
      "name": "tokenByIndex",
      "outputs": [
        {
          "internalType": "uint256",
          "name": "",
          "type": "uint256"
        }
      ],
      "stateMutability": "view",
      "type": "function",
      "constant": true
    },
    {
      "inputs": [
        {
          "internalType": "address",
          "name": "owner",
          "type": "address"
        },
        {
          "internalType": "uint256",
          "name": "index",
          "type": "uint256"
        }
      ],
      "name": "tokenOfOwnerByIndex",
      "outputs": [
        {
          "internalType": "uint256",
          "name": "",
          "type": "uint256"
        }
      ],
      "stateMutability": "view",
      "type": "function",
      "constant": true
    },
    {
      "inputs": [],
      "name": "totalSupply",
      "outputs": [
        {
          "internalType": "uint256",
          "name": "",
          "type": "uint256"
        }
      ],
      "stateMutability": "view",
      "type": "function",
      "constant": true
    },
    {
      "inputs": [
        {
          "internalType": "address",
          "name": "from",
          "type": "address"
        },
        {
          "internalType": "address",
          "name": "to",
          "type": "address"
        },
        {
          "internalType": "uint256",
          "name": "tokenId",
          "type": "uint256"
        }
      ],
      "name": "transferFrom",
      "outputs": [],
      "stateMutability": "nonpayable",
      "type": "function"
    },
    {
      "inputs": [
        {
          "internalType": "address",
          "name": "newOwner",
          "type": "address"
        }
      ],
      "name": "transferOwnership",
      "outputs": [],
      "stateMutability": "nonpayable",
      "type": "function"
    },
    {
      "inputs": [
        {
          "internalType": "uint256",
          "name": "_count",
          "type": "uint256"
        }
      ],
      "name": "mintBB",
      "outputs": [],
      "stateMutability": "payable",
      "type": "function",
      "payable": true
    },
    {
      "inputs": [
        {
          "internalType": "string",
          "name": "baseURI",
          "type": "string"
        }
      ],
      "name": "setBaseURI",
      "outputs": [],
      "stateMutability": "nonpayable",
      "type": "function"
    },
    {
      "inputs": [],
      "name": "contractURI",
      "outputs": [
        {
          "internalType": "string",
          "name": "",
          "type": "string"
        }
      ],
      "stateMutability": "pure",
      "type": "function",
      "constant": true
    },
    {
      "inputs": [
        {
          "internalType": "uint256",
          "name": "tokenId",
          "type": "uint256"
        }
      ],
      "name": "tokenURI",
      "outputs": [
        {
          "internalType": "string",
          "name": "",
          "type": "string"
        }
      ],
      "stateMutability": "view",
      "type": "function",
      "constant": true
    },
    {
      "inputs": [
        {
          "internalType": "address",
          "name": "_owner",
          "type": "address"
        }
      ],
      "name": "walletOfOwner",
      "outputs": [
        {
          "internalType": "uint256[]",
          "name": "",
          "type": "uint256[]"
        }
      ],
      "stateMutability": "view",
      "type": "function",
      "constant": true
    }
  ],
  "bytecode": "0x6080604052612b67600b556040518060400160405280600581526020017f2e6a736f6e000000000000000000000000000000000000000000000000000000815250600c90805190602001906200005792919062000350565b503480156200006557600080fd5b50604051620046323803806200463283398181016040528101906200008b9190620004a0565b6040518060400160405280600a81526020017f426f78696e67426f797a000000000000000000000000000000000000000000008152506040518060400160405280600a81526020017f424f58494e47424f595a0000000000000000000000000000000000000000000081525081600090805190602001906200010f92919062000350565b5080600190805190602001906200012892919062000350565b5050506200014b6200013f620001ad60201b60201c565b620001b560201b60201c565b6200015c836200027b60201b60201c565b81600e60006101000a81548173ffffffffffffffffffffffffffffffffffffffff021916908373ffffffffffffffffffffffffffffffffffffffff16021790555080600b8190555050505062000727565b600033905090565b6000600a60009054906101000a900473ffffffffffffffffffffffffffffffffffffffff16905081600a60006101000a81548173ffffffffffffffffffffffffffffffffffffffff021916908373ffffffffffffffffffffffffffffffffffffffff1602179055508173ffffffffffffffffffffffffffffffffffffffff168173ffffffffffffffffffffffffffffffffffffffff167f8be0079c531659141344cd1fd0a4f28419497f9722a3daafe3b4186f6b6457e060405160405180910390a35050565b6200028b620001ad60201b60201c565b73ffffffffffffffffffffffffffffffffffffffff16620002b16200032660201b60201c565b73ffffffffffffffffffffffffffffffffffffffff16146200030a576040517f08c379a0000000000000000000000000000000000000000000000000000000008152600401620003019062000551565b60405180910390fd5b80600d90805190602001906200032292919062000350565b5050565b6000600a60009054906101000a900473ffffffffffffffffffffffffffffffffffffffff16905090565b8280546200035e906200065f565b90600052602060002090601f016020900481019282620003825760008555620003ce565b82601f106200039d57805160ff1916838001178555620003ce565b82800160010185558215620003ce579182015b82811115620003cd578251825591602001919060010190620003b0565b5b509050620003dd9190620003e1565b5090565b5b80821115620003fc576000816000905550600101620003e2565b5090565b6000620004176200041184620005a7565b62000573565b9050828152602081018484840111156200043057600080fd5b6200043d84828562000629565b509392505050565b6000815190506200045681620006f3565b92915050565b600082601f8301126200046e57600080fd5b81516200048084826020860162000400565b91505092915050565b6000815190506200049a816200070d565b92915050565b600080600060608486031215620004b657600080fd5b600084015167ffffffffffffffff811115620004d157600080fd5b620004df868287016200045c565b9350506020620004f28682870162000445565b9250506040620005058682870162000489565b9150509250925092565b60006200051e602083620005da565b91507f4f776e61626c653a2063616c6c6572206973206e6f7420746865206f776e65726000830152602082019050919050565b600060208201905081810360008301526200056c816200050f565b9050919050565b6000604051905081810181811067ffffffffffffffff821117156200059d576200059c620006c4565b5b8060405250919050565b600067ffffffffffffffff821115620005c557620005c4620006c4565b5b601f19601f8301169050602081019050919050565b600082825260208201905092915050565b6000620005f882620005ff565b9050919050565b600073ffffffffffffffffffffffffffffffffffffffff82169050919050565b6000819050919050565b60005b83811015620006495780820151818401526020810190506200062c565b8381111562000659576000848401525b50505050565b600060028204905060018216806200067857607f821691505b602082108114156200068f576200068e62000695565b5b50919050565b7f4e487b7100000000000000000000000000000000000000000000000000000000600052602260045260246000fd5b7f4e487b7100000000000000000000000000000000000000000000000000000000600052604160045260246000fd5b620006fe81620005eb565b81146200070a57600080fd5b50565b62000718816200061f565b81146200072457600080fd5b50565b613efb80620007376000396000f3fe60806040526004361061019c5760003560e01c80636352211e116100ec578063b88d4fde1161008a578063e77df06811610064578063e77df068146105ee578063e8a3d4851461060a578063e985e9c514610635578063f2fde38b146106725761019c565b8063b88d4fde1461055d578063c668286214610586578063c87b56dd146105b15761019c565b80638da5cb5b116100c65780638da5cb5b146104b357806395d89b41146104de578063a035b1fe14610509578063a22cb465146105345761019c565b80636352211e1461042257806370a082311461045f578063715018a61461049c5761019c565b806323b872dd11610159578063438b630011610133578063438b6300146103545780634f6ccce71461039157806355f804b3146103ce578063564b28a0146103f75761019c565b806323b872dd146102c55780632f745c59146102ee57806342842e0e1461032b5761019c565b806301ffc9a7146101a157806306fdde03146101de578063076736a214610209578063081812fc14610234578063095ea7b31461027157806318160ddd1461029a575b600080fd5b3480156101ad57600080fd5b506101c860048036038101906101c39190612b80565b61069b565b6040516101d5919061369e565b60405180910390f35b3480156101ea57600080fd5b506101f3610715565b60405161020091906136b9565b60405180910390f35b34801561021557600080fd5b5061021e6107a7565b60405161022b91906139bb565b60405180910390f35b34801561024057600080fd5b5061025b60048036038101906102569190612c13565b6107ac565b6040516102689190613615565b60405180910390f35b34801561027d57600080fd5b5061029860048036038101906102939190612b44565b610831565b005b3480156102a657600080fd5b506102af610949565b6040516102bc91906139bb565b60405180910390f35b3480156102d157600080fd5b506102ec60048036038101906102e79190612a3e565b610956565b005b3480156102fa57600080fd5b5061031560048036038101906103109190612b44565b6109b6565b60405161032291906139bb565b60405180910390f35b34801561033757600080fd5b50610352600480360381019061034d9190612a3e565b610a5b565b005b34801561036057600080fd5b5061037b600480360381019061037691906129d9565b610a7b565b604051610388919061367c565b60405180910390f35b34801561039d57600080fd5b506103b860048036038101906103b39190612c13565b610b75565b6040516103c591906139bb565b60405180910390f35b3480156103da57600080fd5b506103f560048036038101906103f09190612bd2565b610c0c565b005b34801561040357600080fd5b5061040c610ca2565b60405161041991906139bb565b60405180910390f35b34801561042e57600080fd5b5061044960048036038101906104449190612c13565b610ca8565b6040516104569190613615565b60405180910390f35b34801561046b57600080fd5b50610486600480360381019061048191906129d9565b610d5a565b60405161049391906139bb565b60405180910390f35b3480156104a857600080fd5b506104b1610e12565b005b3480156104bf57600080fd5b506104c8610e9a565b6040516104d59190613615565b60405180910390f35b3480156104ea57600080fd5b506104f3610ec4565b60405161050091906136b9565b60405180910390f35b34801561051557600080fd5b5061051e610f56565b60405161052b91906139bb565b60405180910390f35b34801561054057600080fd5b5061055b60048036038101906105569190612b08565b610f62565b005b34801561056957600080fd5b50610584600480360381019061057f9190612a8d565b6110e3565b005b34801561059257600080fd5b5061059b611145565b6040516105a891906136b9565b60405180910390f35b3480156105bd57600080fd5b506105d860048036038101906105d39190612c13565b6111d3565b6040516105e591906136b9565b60405180910390f35b61060860048036038101906106039190612c13565b61127d565b005b34801561061657600080fd5b5061061f6114a5565b60405161062c91906136b9565b60405180910390f35b34801561064157600080fd5b5061065c60048036038101906106579190612a02565b6114c5565b604051610669919061369e565b60405180910390f35b34801561067e57600080fd5b50610699600480360381019061069491906129d9565b611559565b005b60007f780e9d63000000000000000000000000000000000000000000000000000000007bffffffffffffffffffffffffffffffffffffffffffffffffffffffff1916827bffffffffffffffffffffffffffffffffffffffffffffffffffffffff1916148061070e575061070d82611651565b5b9050919050565b60606000805461072490613cc3565b80601f016020809104026020016040519081016040528092919081815260200182805461075090613cc3565b801561079d5780601f106107725761010080835404028352916020019161079d565b820191906000526020600020905b81548152906001019060200180831161078057829003601f168201915b5050505050905090565b600581565b60006107b782611733565b6107f6576040517f08c379a00000000000000000000000000000000000000000000000000000000081526004016107ed9061385b565b60405180910390fd5b6004600083815260200190815260200160002060009054906101000a900473ffffffffffffffffffffffffffffffffffffffff169050919050565b600061083c82610ca8565b90508073ffffffffffffffffffffffffffffffffffffffff168373ffffffffffffffffffffffffffffffffffffffff1614156108ad576040517f08c379a00000000000000000000000000000000000000000000000000000000081526004016108a49061393b565b60405180910390fd5b8073ffffffffffffffffffffffffffffffffffffffff166108cc61179f565b73ffffffffffffffffffffffffffffffffffffffff1614806108fb57506108fa816108f561179f565b6114c5565b5b61093a576040517f08c379a0000000000000000000000000000000000000000000000000000000008152600401610931906137db565b60405180910390fd5b61094483836117a7565b505050565b6000600880549050905090565b61096761096161179f565b82611860565b6109a6576040517f08c379a000000000000000000000000000000000000000000000000000000000815260040161099d9061397b565b60405180910390fd5b6109b183838361193e565b505050565b60006109c183610d5a565b8210610a02576040517f08c379a00000000000000000000000000000000000000000000000000000000081526004016109f9906136db565b60405180910390fd5b600660008473ffffffffffffffffffffffffffffffffffffffff1673ffffffffffffffffffffffffffffffffffffffff168152602001908152602001600020600083815260200190815260200160002054905092915050565b610a76838383604051806020016040528060008152506110e3565b505050565b60606000610a8883610d5a565b905060008167ffffffffffffffff811115610acc577f4e487b7100000000000000000000000000000000000000000000000000000000600052604160045260246000fd5b604051908082528060200260200182016040528015610afa5781602001602082028036833780820191505090505b50905060005b82811015610b6a57610b1285826109b6565b828281518110610b4b577f4e487b7100000000000000000000000000000000000000000000000000000000600052603260045260246000fd5b6020026020010181815250508080610b6290613cf5565b915050610b00565b508092505050919050565b6000610b7f610949565b8210610bc0576040517f08c379a0000000000000000000000000000000000000000000000000000000008152600401610bb79061399b565b60405180910390fd5b60088281548110610bfa577f4e487b7100000000000000000000000000000000000000000000000000000000600052603260045260246000fd5b90600052602060002001549050919050565b610c1461179f565b73ffffffffffffffffffffffffffffffffffffffff16610c32610e9a565b73ffffffffffffffffffffffffffffffffffffffff1614610c88576040517f08c379a0000000000000000000000000000000000000000000000000000000008152600401610c7f9061389b565b60405180910390fd5b80600d9080519060200190610c9e9291906127fd565b5050565b600b5481565b6000806002600084815260200190815260200160002060009054906101000a900473ffffffffffffffffffffffffffffffffffffffff169050600073ffffffffffffffffffffffffffffffffffffffff168173ffffffffffffffffffffffffffffffffffffffff161415610d51576040517f08c379a0000000000000000000000000000000000000000000000000000000008152600401610d489061381b565b60405180910390fd5b80915050919050565b60008073ffffffffffffffffffffffffffffffffffffffff168273ffffffffffffffffffffffffffffffffffffffff161415610dcb576040517f08c379a0000000000000000000000000000000000000000000000000000000008152600401610dc2906137fb565b60405180910390fd5b600360008373ffffffffffffffffffffffffffffffffffffffff1673ffffffffffffffffffffffffffffffffffffffff168152602001908152602001600020549050919050565b610e1a61179f565b73ffffffffffffffffffffffffffffffffffffffff16610e38610e9a565b73ffffffffffffffffffffffffffffffffffffffff1614610e8e576040517f08c379a0000000000000000000000000000000000000000000000000000000008152600401610e859061389b565b60405180910390fd5b610e986000611b9a565b565b6000600a60009054906101000a900473ffffffffffffffffffffffffffffffffffffffff16905090565b606060018054610ed390613cc3565b80601f0160208091040260200160405190810160405280929190818152602001828054610eff90613cc3565b8015610f4c5780601f10610f2157610100808354040283529160200191610f4c565b820191906000526020600020905b815481529060010190602001808311610f2f57829003601f168201915b5050505050905090565b67016345785d8a000081565b610f6a61179f565b73ffffffffffffffffffffffffffffffffffffffff168273ffffffffffffffffffffffffffffffffffffffff161415610fd8576040517f08c379a0000000000000000000000000000000000000000000000000000000008152600401610fcf9061379b565b60405180910390fd5b8060056000610fe561179f565b73ffffffffffffffffffffffffffffffffffffffff1673ffffffffffffffffffffffffffffffffffffffff16815260200190815260200160002060008473ffffffffffffffffffffffffffffffffffffffff1673ffffffffffffffffffffffffffffffffffffffff16815260200190815260200160002060006101000a81548160ff0219169083151502179055508173ffffffffffffffffffffffffffffffffffffffff1661109261179f565b73ffffffffffffffffffffffffffffffffffffffff167f17307eab39ab6107e8899845ad3d59bd9653f200f220920489ca2b5937696c31836040516110d7919061369e565b60405180910390a35050565b6110f46110ee61179f565b83611860565b611133576040517f08c379a000000000000000000000000000000000000000000000000000000000815260040161112a9061397b565b60405180910390fd5b61113f84848484611c60565b50505050565b600c805461115290613cc3565b80601f016020809104026020016040519081016040528092919081815260200182805461117e90613cc3565b80156111cb5780601f106111a0576101008083540402835291602001916111cb565b820191906000526020600020905b8154815290600101906020018083116111ae57829003601f168201915b505050505081565b60606111de82611733565b61121d576040517f08c379a0000000000000000000000000000000000000000000000000000000008152600401611214906138db565b60405180910390fd5b6000611227611cbc565b905060008151116112475760405180602001604052806000815250611275565b8061125184611d4e565b600c604051602001611265939291906135e4565b6040516020818303038152906040525b915050919050565b600b54611288610949565b106112c8576040517f08c379a00000000000000000000000000000000000000000000000000000000081526004016112bf9061375b565b60405180910390fd5b6000811161130b576040517f08c379a00000000000000000000000000000000000000000000000000000000081526004016113029061395b565b60405180910390fd5b600581111561134f576040517f08c379a00000000000000000000000000000000000000000000000000000000081526004016113469061387b565b60405180910390fd5b600b548161135b610949565b6113659190613af8565b11156113a6576040517f08c379a000000000000000000000000000000000000000000000000000000000815260040161139d9061391b565b60405180910390fd5b60006113c38267016345785d8a0000611efb90919063ffffffff16565b905080341015611408576040517f08c379a00000000000000000000000000000000000000000000000000000000081526004016113ff906138fb565b60405180910390fd5b60005b82811015611437576114243361141f610949565b611f11565b808061142f90613cf5565b91505061140b565b50600e60009054906101000a900473ffffffffffffffffffffffffffffffffffffffff1673ffffffffffffffffffffffffffffffffffffffff166108fc829081150290604051600060405180830381858888f193505050501580156114a0573d6000803e3d6000fd5b505050565b60606040518060600160405280602d8152602001613e99602d9139905090565b6000600560008473ffffffffffffffffffffffffffffffffffffffff1673ffffffffffffffffffffffffffffffffffffffff16815260200190815260200160002060008373ffffffffffffffffffffffffffffffffffffffff1673ffffffffffffffffffffffffffffffffffffffff16815260200190815260200160002060009054906101000a900460ff16905092915050565b61156161179f565b73ffffffffffffffffffffffffffffffffffffffff1661157f610e9a565b73ffffffffffffffffffffffffffffffffffffffff16146115d5576040517f08c379a00000000000000000000000000000000000000000000000000000000081526004016115cc9061389b565b60405180910390fd5b600073ffffffffffffffffffffffffffffffffffffffff168173ffffffffffffffffffffffffffffffffffffffff161415611645576040517f08c379a000000000000000000000000000000000000000000000000000000000815260040161163c9061371b565b60405180910390fd5b61164e81611b9a565b50565b60007f80ac58cd000000000000000000000000000000000000000000000000000000007bffffffffffffffffffffffffffffffffffffffffffffffffffffffff1916827bffffffffffffffffffffffffffffffffffffffffffffffffffffffff1916148061171c57507f5b5e139f000000000000000000000000000000000000000000000000000000007bffffffffffffffffffffffffffffffffffffffffffffffffffffffff1916827bffffffffffffffffffffffffffffffffffffffffffffffffffffffff1916145b8061172c575061172b82611f2f565b5b9050919050565b60008073ffffffffffffffffffffffffffffffffffffffff166002600084815260200190815260200160002060009054906101000a900473ffffffffffffffffffffffffffffffffffffffff1673ffffffffffffffffffffffffffffffffffffffff1614159050919050565b600033905090565b816004600083815260200190815260200160002060006101000a81548173ffffffffffffffffffffffffffffffffffffffff021916908373ffffffffffffffffffffffffffffffffffffffff160217905550808273ffffffffffffffffffffffffffffffffffffffff1661181a83610ca8565b73ffffffffffffffffffffffffffffffffffffffff167f8c5be1e5ebec7d5bd14f71427d1e84f3dd0314c0f7b2291e5b200ac8c7c3b92560405160405180910390a45050565b600061186b82611733565b6118aa576040517f08c379a00000000000000000000000000000000000000000000000000000000081526004016118a1906137bb565b60405180910390fd5b60006118b583610ca8565b90508073ffffffffffffffffffffffffffffffffffffffff168473ffffffffffffffffffffffffffffffffffffffff16148061192457508373ffffffffffffffffffffffffffffffffffffffff1661190c846107ac565b73ffffffffffffffffffffffffffffffffffffffff16145b80611935575061193481856114c5565b5b91505092915050565b8273ffffffffffffffffffffffffffffffffffffffff1661195e82610ca8565b73ffffffffffffffffffffffffffffffffffffffff16146119b4576040517f08c379a00000000000000000000000000000000000000000000000000000000081526004016119ab906138bb565b60405180910390fd5b600073ffffffffffffffffffffffffffffffffffffffff168273ffffffffffffffffffffffffffffffffffffffff161415611a24576040517f08c379a0000000000000000000000000000000000000000000000000000000008152600401611a1b9061377b565b60405180910390fd5b611a2f838383611f99565b611a3a6000826117a7565b6001600360008573ffffffffffffffffffffffffffffffffffffffff1673ffffffffffffffffffffffffffffffffffffffff1681526020019081526020016000206000828254611a8a9190613bd9565b925050819055506001600360008473ffffffffffffffffffffffffffffffffffffffff1673ffffffffffffffffffffffffffffffffffffffff1681526020019081526020016000206000828254611ae19190613af8565b92505081905550816002600083815260200190815260200160002060006101000a81548173ffffffffffffffffffffffffffffffffffffffff021916908373ffffffffffffffffffffffffffffffffffffffff160217905550808273ffffffffffffffffffffffffffffffffffffffff168473ffffffffffffffffffffffffffffffffffffffff167fddf252ad1be2c89b69c2b068fc378daa952ba7f163c4a11628f55a4df523b3ef60405160405180910390a4505050565b6000600a60009054906101000a900473ffffffffffffffffffffffffffffffffffffffff16905081600a60006101000a81548173ffffffffffffffffffffffffffffffffffffffff021916908373ffffffffffffffffffffffffffffffffffffffff1602179055508173ffffffffffffffffffffffffffffffffffffffff168173ffffffffffffffffffffffffffffffffffffffff167f8be0079c531659141344cd1fd0a4f28419497f9722a3daafe3b4186f6b6457e060405160405180910390a35050565b611c6b84848461193e565b611c77848484846120ad565b611cb6576040517f08c379a0000000000000000000000000000000000000000000000000000000008152600401611cad906136fb565b60405180910390fd5b50505050565b6060600d8054611ccb90613cc3565b80601f0160208091040260200160405190810160405280929190818152602001828054611cf790613cc3565b8015611d445780601f10611d1957610100808354040283529160200191611d44565b820191906000526020600020905b815481529060010190602001808311611d2757829003601f168201915b5050505050905090565b60606000821415611d96576040518060400160405280600181526020017f30000000000000000000000000000000000000000000000000000000000000008152509050611ef6565b600082905060005b60008214611dc8578080611db190613cf5565b915050600a82611dc19190613b4e565b9150611d9e565b60008167ffffffffffffffff811115611e0a577f4e487b7100000000000000000000000000000000000000000000000000000000600052604160045260246000fd5b6040519080825280601f01601f191660200182016040528015611e3c5781602001600182028036833780820191505090505b5090505b60008514611eef57600182611e559190613bd9565b9150600a85611e649190613d3e565b6030611e709190613af8565b60f81b818381518110611eac577f4e487b7100000000000000000000000000000000000000000000000000000000600052603260045260246000fd5b60200101907effffffffffffffffffffffffffffffffffffffffffffffffffffffffffffff1916908160001a905350600a85611ee89190613b4e565b9450611e40565b8093505050505b919050565b60008183611f099190613b7f565b905092915050565b611f2b828260405180602001604052806000815250612244565b5050565b60007f01ffc9a7000000000000000000000000000000000000000000000000000000007bffffffffffffffffffffffffffffffffffffffffffffffffffffffff1916827bffffffffffffffffffffffffffffffffffffffffffffffffffffffff1916149050919050565b611fa483838361229f565b600073ffffffffffffffffffffffffffffffffffffffff168373ffffffffffffffffffffffffffffffffffffffff161415611fe757611fe2816122a4565b612026565b8173ffffffffffffffffffffffffffffffffffffffff168373ffffffffffffffffffffffffffffffffffffffff16146120255761202483826122ed565b5b5b600073ffffffffffffffffffffffffffffffffffffffff168273ffffffffffffffffffffffffffffffffffffffff161415612069576120648161245a565b6120a8565b8273ffffffffffffffffffffffffffffffffffffffff168273ffffffffffffffffffffffffffffffffffffffff16146120a7576120a6828261259d565b5b5b505050565b60006120ce8473ffffffffffffffffffffffffffffffffffffffff1661261c565b15612237578373ffffffffffffffffffffffffffffffffffffffff1663150b7a026120f761179f565b8786866040518563ffffffff1660e01b81526004016121199493929190613630565b602060405180830381600087803b15801561213357600080fd5b505af192505050801561216457506040513d601f19601f820116820180604052508101906121619190612ba9565b60015b6121e7573d8060008114612194576040519150601f19603f3d011682016040523d82523d6000602084013e612199565b606091505b506000815114156121df576040517f08c379a00000000000000000000000000000000000000000000000000000000081526004016121d6906136fb565b60405180910390fd5b805181602001fd5b63150b7a0260e01b7bffffffffffffffffffffffffffffffffffffffffffffffffffffffff1916817bffffffffffffffffffffffffffffffffffffffffffffffffffffffff19161491505061223c565b600190505b949350505050565b61224e838361262f565b61225b60008484846120ad565b61229a576040517f08c379a0000000000000000000000000000000000000000000000000000000008152600401612291906136fb565b60405180910390fd5b505050565b505050565b6008805490506009600083815260200190815260200160002081905550600881908060018154018082558091505060019003906000526020600020016000909190919091505550565b600060016122fa84610d5a565b6123049190613bd9565b90506000600760008481526020019081526020016000205490508181146123e9576000600660008673ffffffffffffffffffffffffffffffffffffffff1673ffffffffffffffffffffffffffffffffffffffff168152602001908152602001600020600084815260200190815260200160002054905080600660008773ffffffffffffffffffffffffffffffffffffffff1673ffffffffffffffffffffffffffffffffffffffff168152602001908152602001600020600084815260200190815260200160002081905550816007600083815260200190815260200160002081905550505b6007600084815260200190815260200160002060009055600660008573ffffffffffffffffffffffffffffffffffffffff1673ffffffffffffffffffffffffffffffffffffffff16815260200190815260200160002060008381526020019081526020016000206000905550505050565b6000600160088054905061246e9190613bd9565b90506000600960008481526020019081526020016000205490506000600883815481106124c4577f4e487b7100000000000000000000000000000000000000000000000000000000600052603260045260246000fd5b90600052602060002001549050806008838154811061250c577f4e487b7100000000000000000000000000000000000000000000000000000000600052603260045260246000fd5b906000526020600020018190555081600960008381526020019081526020016000208190555060096000858152602001908152602001600020600090556008805480612581577f4e487b7100000000000000000000000000000000000000000000000000000000600052603160045260246000fd5b6001900381819060005260206000200160009055905550505050565b60006125a883610d5a565b905081600660008573ffffffffffffffffffffffffffffffffffffffff1673ffffffffffffffffffffffffffffffffffffffff168152602001908152602001600020600083815260200190815260200160002081905550806007600084815260200190815260200160002081905550505050565b600080823b905060008111915050919050565b600073ffffffffffffffffffffffffffffffffffffffff168273ffffffffffffffffffffffffffffffffffffffff16141561269f576040517f08c379a00000000000000000000000000000000000000000000000000000000081526004016126969061383b565b60405180910390fd5b6126a881611733565b156126e8576040517f08c379a00000000000000000000000000000000000000000000000000000000081526004016126df9061373b565b60405180910390fd5b6126f460008383611f99565b6001600360008473ffffffffffffffffffffffffffffffffffffffff1673ffffffffffffffffffffffffffffffffffffffff16815260200190815260200160002060008282546127449190613af8565b92505081905550816002600083815260200190815260200160002060006101000a81548173ffffffffffffffffffffffffffffffffffffffff021916908373ffffffffffffffffffffffffffffffffffffffff160217905550808273ffffffffffffffffffffffffffffffffffffffff16600073ffffffffffffffffffffffffffffffffffffffff167fddf252ad1be2c89b69c2b068fc378daa952ba7f163c4a11628f55a4df523b3ef60405160405180910390a45050565b82805461280990613cc3565b90600052602060002090601f01602090048101928261282b5760008555612872565b82601f1061284457805160ff1916838001178555612872565b82800160010185558215612872579182015b82811115612871578251825591602001919060010190612856565b5b50905061287f9190612883565b5090565b5b8082111561289c576000816000905550600101612884565b5090565b60006128b36128ae84613a07565b6139d6565b9050828152602081018484840111156128cb57600080fd5b6128d6848285613c81565b509392505050565b60006128f16128ec84613a37565b6139d6565b90508281526020810184848401111561290957600080fd5b612914848285613c81565b509392505050565b60008135905061292b81613e3c565b92915050565b60008135905061294081613e53565b92915050565b60008135905061295581613e6a565b92915050565b60008151905061296a81613e6a565b92915050565b600082601f83011261298157600080fd5b81356129918482602086016128a0565b91505092915050565b600082601f8301126129ab57600080fd5b81356129bb8482602086016128de565b91505092915050565b6000813590506129d381613e81565b92915050565b6000602082840312156129eb57600080fd5b60006129f98482850161291c565b91505092915050565b60008060408385031215612a1557600080fd5b6000612a238582860161291c565b9250506020612a348582860161291c565b9150509250929050565b600080600060608486031215612a5357600080fd5b6000612a618682870161291c565b9350506020612a728682870161291c565b9250506040612a83868287016129c4565b9150509250925092565b60008060008060808587031215612aa357600080fd5b6000612ab18782880161291c565b9450506020612ac28782880161291c565b9350506040612ad3878288016129c4565b925050606085013567ffffffffffffffff811115612af057600080fd5b612afc87828801612970565b91505092959194509250565b60008060408385031215612b1b57600080fd5b6000612b298582860161291c565b9250506020612b3a85828601612931565b9150509250929050565b60008060408385031215612b5757600080fd5b6000612b658582860161291c565b9250506020612b76858286016129c4565b9150509250929050565b600060208284031215612b9257600080fd5b6000612ba084828501612946565b91505092915050565b600060208284031215612bbb57600080fd5b6000612bc98482850161295b565b91505092915050565b600060208284031215612be457600080fd5b600082013567ffffffffffffffff811115612bfe57600080fd5b612c0a8482850161299a565b91505092915050565b600060208284031215612c2557600080fd5b6000612c33848285016129c4565b91505092915050565b6000612c4883836135c6565b60208301905092915050565b612c5d81613c0d565b82525050565b6000612c6e82613a8c565b612c788185613aba565b9350612c8383613a67565b8060005b83811015612cb4578151612c9b8882612c3c565b9750612ca683613aad565b925050600181019050612c87565b5085935050505092915050565b612cca81613c1f565b82525050565b6000612cdb82613a97565b612ce58185613acb565b9350612cf5818560208601613c90565b612cfe81613e2b565b840191505092915050565b6000612d1482613aa2565b612d1e8185613adc565b9350612d2e818560208601613c90565b612d3781613e2b565b840191505092915050565b6000612d4d82613aa2565b612d578185613aed565b9350612d67818560208601613c90565b80840191505092915050565b60008154612d8081613cc3565b612d8a8186613aed565b94506001821660008114612da55760018114612db657612de9565b60ff19831686528186019350612de9565b612dbf85613a77565b60005b83811015612de157815481890152600182019150602081019050612dc2565b838801955050505b50505092915050565b6000612dff602b83613adc565b91507f455243373231456e756d657261626c653a206f776e657220696e646578206f7560008301527f74206f6620626f756e64730000000000000000000000000000000000000000006020830152604082019050919050565b6000612e65603283613adc565b91507f4552433732313a207472616e7366657220746f206e6f6e20455243373231526560008301527f63656976657220696d706c656d656e74657200000000000000000000000000006020830152604082019050919050565b6000612ecb602683613adc565b91507f4f776e61626c653a206e6577206f776e657220697320746865207a65726f206160008301527f64647265737300000000000000000000000000000000000000000000000000006020830152604082019050919050565b6000612f31601c83613adc565b91507f4552433732313a20746f6b656e20616c7265616479206d696e746564000000006000830152602082019050919050565b6000612f71600e83613adc565b91507f53616c652068617320656e6465640000000000000000000000000000000000006000830152602082019050919050565b6000612fb1602483613adc565b91507f4552433732313a207472616e7366657220746f20746865207a65726f2061646460008301527f72657373000000000000000000000000000000000000000000000000000000006020830152604082019050919050565b6000613017601983613adc565b91507f4552433732313a20617070726f766520746f2063616c6c6572000000000000006000830152602082019050919050565b6000613057602c83613adc565b91507f4552433732313a206f70657261746f7220717565727920666f72206e6f6e657860008301527f697374656e7420746f6b656e00000000000000000000000000000000000000006020830152604082019050919050565b60006130bd603883613adc565b91507f4552433732313a20617070726f76652063616c6c6572206973206e6f74206f7760008301527f6e6572206e6f7220617070726f76656420666f7220616c6c00000000000000006020830152604082019050919050565b6000613123602a83613adc565b91507f4552433732313a2062616c616e636520717565727920666f7220746865207a6560008301527f726f2061646472657373000000000000000000000000000000000000000000006020830152604082019050919050565b6000613189602983613adc565b91507f4552433732313a206f776e657220717565727920666f72206e6f6e657869737460008301527f656e7420746f6b656e00000000000000000000000000000000000000000000006020830152604082019050919050565b60006131ef602083613adc565b91507f4552433732313a206d696e7420746f20746865207a65726f20616464726573736000830152602082019050919050565b600061322f602c83613adc565b91507f4552433732313a20617070726f76656420717565727920666f72206e6f6e657860008301527f697374656e7420746f6b656e00000000000000000000000000000000000000006020830152604082019050919050565b6000613295600983613adc565b91507f45786365656473203500000000000000000000000000000000000000000000006000830152602082019050919050565b60006132d5602083613adc565b91507f4f776e61626c653a2063616c6c6572206973206e6f7420746865206f776e65726000830152602082019050919050565b6000613315602983613adc565b91507f4552433732313a207472616e73666572206f6620746f6b656e2074686174206960008301527f73206e6f74206f776e00000000000000000000000000000000000000000000006020830152604082019050919050565b600061337b602f83613adc565b91507f4552433732314d657461646174613a2055524920717565727920666f72206e6f60008301527f6e6578697374656e7420746f6b656e00000000000000000000000000000000006020830152604082019050919050565b60006133e1601183613adc565b91507f56616c75652062656c6f772070726963650000000000000000000000000000006000830152602082019050919050565b6000613421601583613adc565b91507f4e6f7420656e6f75676820746f6b656e206c65667400000000000000000000006000830152602082019050919050565b6000613461602183613adc565b91507f4552433732313a20617070726f76616c20746f2063757272656e74206f776e6560008301527f72000000000000000000000000000000000000000000000000000000000000006020830152604082019050919050565b60006134c7601b83613adc565b91507f596f752063616e2774206d696e74203020426f78696e67426f797a00000000006000830152602082019050919050565b6000613507603183613adc565b91507f4552433732313a207472616e736665722063616c6c6572206973206e6f74206f60008301527f776e6572206e6f7220617070726f7665640000000000000000000000000000006020830152604082019050919050565b600061356d602c83613adc565b91507f455243373231456e756d657261626c653a20676c6f62616c20696e646578206f60008301527f7574206f6620626f756e647300000000000000000000000000000000000000006020830152604082019050919050565b6135cf81613c77565b82525050565b6135de81613c77565b82525050565b60006135f08286612d42565b91506135fc8285612d42565b91506136088284612d73565b9150819050949350505050565b600060208201905061362a6000830184612c54565b92915050565b60006080820190506136456000830187612c54565b6136526020830186612c54565b61365f60408301856135d5565b81810360608301526136718184612cd0565b905095945050505050565b600060208201905081810360008301526136968184612c63565b905092915050565b60006020820190506136b36000830184612cc1565b92915050565b600060208201905081810360008301526136d38184612d09565b905092915050565b600060208201905081810360008301526136f481612df2565b9050919050565b6000602082019050818103600083015261371481612e58565b9050919050565b6000602082019050818103600083015261373481612ebe565b9050919050565b6000602082019050818103600083015261375481612f24565b9050919050565b6000602082019050818103600083015261377481612f64565b9050919050565b6000602082019050818103600083015261379481612fa4565b9050919050565b600060208201905081810360008301526137b48161300a565b9050919050565b600060208201905081810360008301526137d48161304a565b9050919050565b600060208201905081810360008301526137f4816130b0565b9050919050565b6000602082019050818103600083015261381481613116565b9050919050565b600060208201905081810360008301526138348161317c565b9050919050565b60006020820190508181036000830152613854816131e2565b9050919050565b6000602082019050818103600083015261387481613222565b9050919050565b6000602082019050818103600083015261389481613288565b9050919050565b600060208201905081810360008301526138b4816132c8565b9050919050565b600060208201905081810360008301526138d481613308565b9050919050565b600060208201905081810360008301526138f48161336e565b9050919050565b60006020820190508181036000830152613914816133d4565b9050919050565b6000602082019050818103600083015261393481613414565b9050919050565b6000602082019050818103600083015261395481613454565b9050919050565b60006020820190508181036000830152613974816134ba565b9050919050565b60006020820190508181036000830152613994816134fa565b9050919050565b600060208201905081810360008301526139b481613560565b9050919050565b60006020820190506139d060008301846135d5565b92915050565b6000604051905081810181811067ffffffffffffffff821117156139fd576139fc613dfc565b5b8060405250919050565b600067ffffffffffffffff821115613a2257613a21613dfc565b5b601f19601f8301169050602081019050919050565b600067ffffffffffffffff821115613a5257613a51613dfc565b5b601f19601f8301169050602081019050919050565b6000819050602082019050919050565b60008190508160005260206000209050919050565b600081519050919050565b600081519050919050565b600081519050919050565b6000602082019050919050565b600082825260208201905092915050565b600082825260208201905092915050565b600082825260208201905092915050565b600081905092915050565b6000613b0382613c77565b9150613b0e83613c77565b9250827fffffffffffffffffffffffffffffffffffffffffffffffffffffffffffffffff03821115613b4357613b42613d6f565b5b828201905092915050565b6000613b5982613c77565b9150613b6483613c77565b925082613b7457613b73613d9e565b5b828204905092915050565b6000613b8a82613c77565b9150613b9583613c77565b9250817fffffffffffffffffffffffffffffffffffffffffffffffffffffffffffffffff0483118215151615613bce57613bcd613d6f565b5b828202905092915050565b6000613be482613c77565b9150613bef83613c77565b925082821015613c0257613c01613d6f565b5b828203905092915050565b6000613c1882613c57565b9050919050565b60008115159050919050565b60007fffffffff0000000000000000000000000000000000000000000000000000000082169050919050565b600073ffffffffffffffffffffffffffffffffffffffff82169050919050565b6000819050919050565b82818337600083830152505050565b60005b83811015613cae578082015181840152602081019050613c93565b83811115613cbd576000848401525b50505050565b60006002820490506001821680613cdb57607f821691505b60208210811415613cef57613cee613dcd565b5b50919050565b6000613d0082613c77565b91507fffffffffffffffffffffffffffffffffffffffffffffffffffffffffffffffff821415613d3357613d32613d6f565b5b600182019050919050565b6000613d4982613c77565b9150613d5483613c77565b925082613d6457613d63613d9e565b5b828206905092915050565b7f4e487b7100000000000000000000000000000000000000000000000000000000600052601160045260246000fd5b7f4e487b7100000000000000000000000000000000000000000000000000000000600052601260045260246000fd5b7f4e487b7100000000000000000000000000000000000000000000000000000000600052602260045260246000fd5b7f4e487b7100000000000000000000000000000000000000000000000000000000600052604160045260246000fd5b6000601f19601f8301169050919050565b613e4581613c0d565b8114613e5057600080fd5b50565b613e5c81613c1f565b8114613e6757600080fd5b50565b613e7381613c2b565b8114613e7e57600080fd5b50565b613e8a81613c77565b8114613e9557600080fd5b5056fe68747470733a2f2f7777772e626f78696e67626f797a2e636f6d2f636f6e74726163742d696e666f2e6a736f6ea2646970667358221220235c6d0f79f646646488d4eed83d8ca2bab9636038ec453f013610990067d26464736f6c63430008000033",
  "immutableReferences": {},
  "source": "// SPDX-License-Identifier: MIT\r\npragma solidity ^0.8.0;\r\n\r\nimport \"@openzeppelin/contracts/token/ERC721/extensions/ERC721Enumerable.sol\";\r\nimport \"@openzeppelin/contracts/access/Ownable.sol\";\r\nimport \"@openzeppelin/contracts/utils/math/SafeMath.sol\";\r\nimport \"@openzeppelin/contracts/utils/Strings.sol\";\r\n\r\ncontract BoxingBoyz is ERC721Enumerable, Ownable {\r\n    using SafeMath for uint256;\r\n    using Strings for uint256;\r\n\r\n    uint public availableToken = 11111;\r\n    uint256 public constant price = 0.1 ether;\r\n    uint public constant maxPurchaseSize = 5;\r\n    string public baseExtension = \".json\";\r\n\r\n    string _baseTokenURI;\r\n    address contractOwner;\r\n\r\n    constructor(string memory theBaseURI, address owner, uint numToken) ERC721(\"BoxingBoyz\", \"BOXINGBOYZ\")  {\r\n        setBaseURI(theBaseURI);\r\n        contractOwner = owner;\r\n        availableToken = numToken;\r\n    }\r\n\r\n    modifier saleIsOpen {\r\n        require(totalSupply() < availableToken, \"Sale has ended\");\r\n        _;\r\n    }\r\n\r\n    function mintBB(uint _count) public payable saleIsOpen {\r\n        require(_count > 0, \"You can't mint 0 BoxingBoyz\");\r\n        require(_count <= maxPurchaseSize, \"Exceeds 5\");\r\n        require(totalSupply() + _count <= availableToken, \"Not enough token left\");\r\n\r\n        uint256 orderPrice = price.mul(_count);\r\n        require(msg.value >= orderPrice, \"Value below price\");\r\n\r\n        for(uint i = 0; i < _count; i++){\r\n            _safeMint(msg.sender, totalSupply()); //Enumerable\r\n        }\r\n\r\n        payable(contractOwner).transfer(orderPrice);\r\n    }\r\n\r\n    function setBaseURI(string memory baseURI) public onlyOwner {\r\n        _baseTokenURI = baseURI;\r\n    }\r\n\r\n    function _baseURI() internal view virtual override returns (string memory) {\r\n        return _baseTokenURI;\r\n    }\r\n\r\n    function contractURI() public pure returns (string memory) {\r\n        return \"https://www.boxingboyz.com/contract-info.json\";\r\n    }\r\n\r\n    function tokenURI(uint256 tokenId) public view virtual override returns (string memory){\r\n    require(\r\n      _exists(tokenId),\r\n      \"ERC721Metadata: URI query for nonexistent token\"\r\n    );\r\n\r\n    string memory currentBaseURI = _baseURI();\r\n    return bytes(currentBaseURI).length > 0\r\n        ? string(abi.encodePacked(currentBaseURI, tokenId.toString(), baseExtension))\r\n        : \"\";\r\n  }\r\n\r\n    function walletOfOwner(address _owner) external view returns(uint256[] memory) {\r\n        uint tokenCount = balanceOf(_owner);\r\n\r\n        uint256[] memory tokensId = new uint256[](tokenCount);\r\n        for(uint i = 0; i < tokenCount; i++){\r\n            tokensId[i] = tokenOfOwnerByIndex(_owner, i);\r\n        }\r\n\r\n        return tokensId;\r\n    }\r\n}",
  "sourcePath": "D:\\werk\\coding\\NoLimit\\NoLimit Portal\\BoxingBoyzNFT\\nft\\contracts\\BoxingBoyz.sol",
  "compiler": {
    "name": "solc",
    "version": "0.8.0+commit.c7dfd78e.Emscripten.clang"
  },
  "schemaVersion": "3.4.3",
  "updatedAt": "2021-10-28T21:03:36.033Z",
  "networkType": "ethereum",
  "devdoc": {
    "kind": "dev",
    "methods": {
      "approve(address,uint256)": {
        "details": "See {IERC721-approve}."
      },
      "balanceOf(address)": {
        "details": "See {IERC721-balanceOf}."
      },
      "getApproved(uint256)": {
        "details": "See {IERC721-getApproved}."
      },
      "isApprovedForAll(address,address)": {
        "details": "See {IERC721-isApprovedForAll}."
      },
      "name()": {
        "details": "See {IERC721Metadata-name}."
      },
      "owner()": {
        "details": "Returns the address of the current owner."
      },
      "ownerOf(uint256)": {
        "details": "See {IERC721-ownerOf}."
      },
      "renounceOwnership()": {
        "details": "Leaves the contract without owner. It will not be possible to call `onlyOwner` functions anymore. Can only be called by the current owner. NOTE: Renouncing ownership will leave the contract without an owner, thereby removing any functionality that is only available to the owner."
      },
      "safeTransferFrom(address,address,uint256)": {
        "details": "See {IERC721-safeTransferFrom}."
      },
      "safeTransferFrom(address,address,uint256,bytes)": {
        "details": "See {IERC721-safeTransferFrom}."
      },
      "setApprovalForAll(address,bool)": {
        "details": "See {IERC721-setApprovalForAll}."
      },
      "supportsInterface(bytes4)": {
        "details": "See {IERC165-supportsInterface}."
      },
      "symbol()": {
        "details": "See {IERC721Metadata-symbol}."
      },
      "tokenByIndex(uint256)": {
        "details": "See {IERC721Enumerable-tokenByIndex}."
      },
      "tokenOfOwnerByIndex(address,uint256)": {
        "details": "See {IERC721Enumerable-tokenOfOwnerByIndex}."
      },
      "tokenURI(uint256)": {
        "details": "See {IERC721Metadata-tokenURI}."
      },
      "totalSupply()": {
        "details": "See {IERC721Enumerable-totalSupply}."
      },
      "transferFrom(address,address,uint256)": {
        "details": "See {IERC721-transferFrom}."
      },
      "transferOwnership(address)": {
        "details": "Transfers ownership of the contract to a new account (`newOwner`). Can only be called by the current owner."
      }
    },
    "version": 1
  },
  "userdoc": {
    "kind": "user",
    "methods": {},
    "version": 1
  }
}