{
  "contractName": "BoxingBoyz",
  "abi": [
    {
      "inputs": [
        {
          "internalType": "string",
          "name": "theBaseURI",
          "type": "string"
        },
        {
          "internalType": "uint256",
          "name": "numToken",
          "type": "uint256"
        }
      ],
      "stateMutability": "nonpayable",
      "type": "constructor"
    },
    {
      "anonymous": false,
      "inputs": [
        {
          "indexed": true,
          "internalType": "address",
          "name": "owner",
          "type": "address"
        },
        {
          "indexed": true,
          "internalType": "address",
          "name": "approved",
          "type": "address"
        },
        {
          "indexed": true,
          "internalType": "uint256",
          "name": "tokenId",
          "type": "uint256"
        }
      ],
      "name": "Approval",
      "type": "event"
    },
    {
      "anonymous": false,
      "inputs": [
        {
          "indexed": true,
          "internalType": "address",
          "name": "owner",
          "type": "address"
        },
        {
          "indexed": true,
          "internalType": "address",
          "name": "operator",
          "type": "address"
        },
        {
          "indexed": false,
          "internalType": "bool",
          "name": "approved",
          "type": "bool"
        }
      ],
      "name": "ApprovalForAll",
      "type": "event"
    },
    {
      "anonymous": false,
      "inputs": [
        {
          "indexed": true,
          "internalType": "address",
          "name": "previousOwner",
          "type": "address"
        },
        {
          "indexed": true,
          "internalType": "address",
          "name": "newOwner",
          "type": "address"
        }
      ],
      "name": "OwnershipTransferred",
      "type": "event"
    },
    {
      "anonymous": false,
      "inputs": [
        {
          "indexed": true,
          "internalType": "address",
          "name": "from",
          "type": "address"
        },
        {
          "indexed": true,
          "internalType": "address",
          "name": "to",
          "type": "address"
        },
        {
          "indexed": true,
          "internalType": "uint256",
          "name": "tokenId",
          "type": "uint256"
        }
      ],
      "name": "Transfer",
      "type": "event"
    },
    {
      "inputs": [
        {
          "internalType": "address",
          "name": "to",
          "type": "address"
        },
        {
          "internalType": "uint256",
          "name": "tokenId",
          "type": "uint256"
        }
      ],
      "name": "approve",
      "outputs": [],
      "stateMutability": "nonpayable",
      "type": "function"
    },
    {
      "inputs": [],
      "name": "availableToken",
      "outputs": [
        {
          "internalType": "uint256",
          "name": "",
          "type": "uint256"
        }
      ],
      "stateMutability": "view",
      "type": "function",
      "constant": true
    },
    {
      "inputs": [
        {
          "internalType": "address",
          "name": "owner",
          "type": "address"
        }
      ],
      "name": "balanceOf",
      "outputs": [
        {
          "internalType": "uint256",
          "name": "",
          "type": "uint256"
        }
      ],
      "stateMutability": "view",
      "type": "function",
      "constant": true
    },
    {
      "inputs": [],
      "name": "baseExtension",
      "outputs": [
        {
          "internalType": "string",
          "name": "",
          "type": "string"
        }
      ],
      "stateMutability": "view",
      "type": "function",
      "constant": true
    },
    {
      "inputs": [
        {
          "internalType": "uint256",
          "name": "tokenId",
          "type": "uint256"
        }
      ],
      "name": "getApproved",
      "outputs": [
        {
          "internalType": "address",
          "name": "",
          "type": "address"
        }
      ],
      "stateMutability": "view",
      "type": "function",
      "constant": true
    },
    {
      "inputs": [
        {
          "internalType": "address",
          "name": "owner",
          "type": "address"
        },
        {
          "internalType": "address",
          "name": "operator",
          "type": "address"
        }
      ],
      "name": "isApprovedForAll",
      "outputs": [
        {
          "internalType": "bool",
          "name": "",
          "type": "bool"
        }
      ],
      "stateMutability": "view",
      "type": "function",
      "constant": true
    },
    {
      "inputs": [],
      "name": "maxPurchaseSize",
      "outputs": [
        {
          "internalType": "uint256",
          "name": "",
          "type": "uint256"
        }
      ],
      "stateMutability": "view",
      "type": "function",
      "constant": true
    },
    {
      "inputs": [],
      "name": "name",
      "outputs": [
        {
          "internalType": "string",
          "name": "",
          "type": "string"
        }
      ],
      "stateMutability": "view",
      "type": "function",
      "constant": true
    },
    {
      "inputs": [],
      "name": "owner",
      "outputs": [
        {
          "internalType": "address",
          "name": "",
          "type": "address"
        }
      ],
      "stateMutability": "view",
      "type": "function",
      "constant": true
    },
    {
      "inputs": [
        {
          "internalType": "uint256",
          "name": "tokenId",
          "type": "uint256"
        }
      ],
      "name": "ownerOf",
      "outputs": [
        {
          "internalType": "address",
          "name": "",
          "type": "address"
        }
      ],
      "stateMutability": "view",
      "type": "function",
      "constant": true
    },
    {
      "inputs": [],
      "name": "price",
      "outputs": [
        {
          "internalType": "uint256",
          "name": "",
          "type": "uint256"
        }
      ],
      "stateMutability": "view",
      "type": "function",
      "constant": true
    },
    {
      "inputs": [],
      "name": "renounceOwnership",
      "outputs": [],
      "stateMutability": "nonpayable",
      "type": "function"
    },
    {
      "inputs": [
        {
          "internalType": "address",
          "name": "from",
          "type": "address"
        },
        {
          "internalType": "address",
          "name": "to",
          "type": "address"
        },
        {
          "internalType": "uint256",
          "name": "tokenId",
          "type": "uint256"
        }
      ],
      "name": "safeTransferFrom",
      "outputs": [],
      "stateMutability": "nonpayable",
      "type": "function"
    },
    {
      "inputs": [
        {
          "internalType": "address",
          "name": "from",
          "type": "address"
        },
        {
          "internalType": "address",
          "name": "to",
          "type": "address"
        },
        {
          "internalType": "uint256",
          "name": "tokenId",
          "type": "uint256"
        },
        {
          "internalType": "bytes",
          "name": "_data",
          "type": "bytes"
        }
      ],
      "name": "safeTransferFrom",
      "outputs": [],
      "stateMutability": "nonpayable",
      "type": "function"
    },
    {
      "inputs": [
        {
          "internalType": "address",
          "name": "operator",
          "type": "address"
        },
        {
          "internalType": "bool",
          "name": "approved",
          "type": "bool"
        }
      ],
      "name": "setApprovalForAll",
      "outputs": [],
      "stateMutability": "nonpayable",
      "type": "function"
    },
    {
      "inputs": [
        {
          "internalType": "bytes4",
          "name": "interfaceId",
          "type": "bytes4"
        }
      ],
      "name": "supportsInterface",
      "outputs": [
        {
          "internalType": "bool",
          "name": "",
          "type": "bool"
        }
      ],
      "stateMutability": "view",
      "type": "function",
      "constant": true
    },
    {
      "inputs": [],
      "name": "symbol",
      "outputs": [
        {
          "internalType": "string",
          "name": "",
          "type": "string"
        }
      ],
      "stateMutability": "view",
      "type": "function",
      "constant": true
    },
    {
      "inputs": [
        {
          "internalType": "uint256",
          "name": "index",
          "type": "uint256"
        }
      ],
      "name": "tokenByIndex",
      "outputs": [
        {
          "internalType": "uint256",
          "name": "",
          "type": "uint256"
        }
      ],
      "stateMutability": "view",
      "type": "function",
      "constant": true
    },
    {
      "inputs": [
        {
          "internalType": "address",
          "name": "owner",
          "type": "address"
        },
        {
          "internalType": "uint256",
          "name": "index",
          "type": "uint256"
        }
      ],
      "name": "tokenOfOwnerByIndex",
      "outputs": [
        {
          "internalType": "uint256",
          "name": "",
          "type": "uint256"
        }
      ],
      "stateMutability": "view",
      "type": "function",
      "constant": true
    },
    {
      "inputs": [],
      "name": "totalSupply",
      "outputs": [
        {
          "internalType": "uint256",
          "name": "",
          "type": "uint256"
        }
      ],
      "stateMutability": "view",
      "type": "function",
      "constant": true
    },
    {
      "inputs": [
        {
          "internalType": "address",
          "name": "from",
          "type": "address"
        },
        {
          "internalType": "address",
          "name": "to",
          "type": "address"
        },
        {
          "internalType": "uint256",
          "name": "tokenId",
          "type": "uint256"
        }
      ],
      "name": "transferFrom",
      "outputs": [],
      "stateMutability": "nonpayable",
      "type": "function"
    },
    {
      "inputs": [
        {
          "internalType": "address",
          "name": "newOwner",
          "type": "address"
        }
      ],
      "name": "transferOwnership",
      "outputs": [],
      "stateMutability": "nonpayable",
      "type": "function"
    },
    {
      "inputs": [
        {
          "internalType": "uint256",
          "name": "_count",
          "type": "uint256"
        }
      ],
      "name": "mintBB",
      "outputs": [],
      "stateMutability": "payable",
      "type": "function",
      "payable": true
    },
    {
      "inputs": [
        {
          "internalType": "string",
          "name": "baseURI",
          "type": "string"
        }
      ],
      "name": "setBaseURI",
      "outputs": [],
      "stateMutability": "nonpayable",
      "type": "function"
    },
    {
      "inputs": [],
      "name": "contractURI",
      "outputs": [
        {
          "internalType": "string",
          "name": "",
          "type": "string"
        }
      ],
      "stateMutability": "pure",
      "type": "function",
      "constant": true
    },
    {
      "inputs": [
        {
          "internalType": "uint256",
          "name": "tokenId",
          "type": "uint256"
        }
      ],
      "name": "tokenURI",
      "outputs": [
        {
          "internalType": "string",
          "name": "",
          "type": "string"
        }
      ],
      "stateMutability": "view",
      "type": "function",
      "constant": true
    },
    {
      "inputs": [
        {
          "internalType": "address",
          "name": "_owner",
          "type": "address"
        }
      ],
      "name": "walletOfOwner",
      "outputs": [
        {
          "internalType": "uint256[]",
          "name": "",
          "type": "uint256[]"
        }
      ],
      "stateMutability": "view",
      "type": "function",
      "constant": true
    }
  ],
  "bytecode": "0x6080604052612b67600b556040518060400160405280600581526020017f2e6a736f6e000000000000000000000000000000000000000000000000000000815250600c90805190602001906200005792919062000436565b50604051806060016040528073bd836d554f431616b444a36673a4c4e05fca211073ffffffffffffffffffffffffffffffffffffffff1673ffffffffffffffffffffffffffffffffffffffff16815260200173423a694fe08c3f070f761cc5b4d2a8731ebd8d5673ffffffffffffffffffffffffffffffffffffffff1673ffffffffffffffffffffffffffffffffffffffff16815260200173eb186ef4dc1a29730beb5ba49bf129c3ef59d35673ffffffffffffffffffffffffffffffffffffffff1673ffffffffffffffffffffffffffffffffffffffff16815250600d90600362000145929190620004c7565b506040518060600160405280600360ff168152602001600360ff168152602001600360ff16815250600e9060036200017f92919062000556565b503480156200018d57600080fd5b5060405162004b1838038062004b188339818101604052810190620001b3919062000655565b6040518060400160405280600a81526020017f426f78696e67426f797a000000000000000000000000000000000000000000008152506040518060400160405280600a81526020017f424f58494e47424f595a0000000000000000000000000000000000000000000081525081600090805190602001906200023792919062000436565b5080600190805190602001906200025092919062000436565b50505062000273620002676200029360201b60201c565b6200029b60201b60201c565b62000284826200036160201b60201c565b80600b81905550505062000879565b600033905090565b6000600a60009054906101000a900473ffffffffffffffffffffffffffffffffffffffff16905081600a60006101000a81548173ffffffffffffffffffffffffffffffffffffffff021916908373ffffffffffffffffffffffffffffffffffffffff1602179055508173ffffffffffffffffffffffffffffffffffffffff168173ffffffffffffffffffffffffffffffffffffffff167f8be0079c531659141344cd1fd0a4f28419497f9722a3daafe3b4186f6b6457e060405160405180910390a35050565b620003716200029360201b60201c565b73ffffffffffffffffffffffffffffffffffffffff16620003976200040c60201b60201c565b73ffffffffffffffffffffffffffffffffffffffff1614620003f0576040517f08c379a0000000000000000000000000000000000000000000000000000000008152600401620003e790620006f1565b60405180910390fd5b80600f90805190602001906200040892919062000436565b5050565b6000600a60009054906101000a900473ffffffffffffffffffffffffffffffffffffffff16905090565b8280546200044490620007cb565b90600052602060002090601f016020900481019282620004685760008555620004b4565b82601f106200048357805160ff1916838001178555620004b4565b82800160010185558215620004b4579182015b82811115620004b357825182559160200191906001019062000496565b5b509050620004c39190620005ad565b5090565b82805482825590600052602060002090810192821562000543579160200282015b82811115620005425782518260006101000a81548173ffffffffffffffffffffffffffffffffffffffff021916908373ffffffffffffffffffffffffffffffffffffffff16021790555091602001919060010190620004e8565b5b509050620005529190620005ad565b5090565b8280548282559060005260206000209081019282156200059a579160200282015b8281111562000599578251829060ff1690559160200191906001019062000577565b5b509050620005a99190620005ad565b5090565b5b80821115620005c8576000816000905550600101620005ae565b5090565b6000620005e3620005dd8462000747565b62000713565b905082815260208101848484011115620005fc57600080fd5b6200060984828562000795565b509392505050565b600082601f8301126200062357600080fd5b815162000635848260208601620005cc565b91505092915050565b6000815190506200064f816200085f565b92915050565b600080604083850312156200066957600080fd5b600083015167ffffffffffffffff8111156200068457600080fd5b620006928582860162000611565b9250506020620006a5858286016200063e565b9150509250929050565b6000620006be6020836200077a565b91507f4f776e61626c653a2063616c6c6572206973206e6f7420746865206f776e65726000830152602082019050919050565b600060208201905081810360008301526200070c81620006af565b9050919050565b6000604051905081810181811067ffffffffffffffff821117156200073d576200073c62000830565b5b8060405250919050565b600067ffffffffffffffff82111562000765576200076462000830565b5b601f19601f8301169050602081019050919050565b600082825260208201905092915050565b6000819050919050565b60005b83811015620007b557808201518184015260208101905062000798565b83811115620007c5576000848401525b50505050565b60006002820490506001821680620007e457607f821691505b60208210811415620007fb57620007fa62000801565b5b50919050565b7f4e487b7100000000000000000000000000000000000000000000000000000000600052602260045260246000fd5b7f4e487b7100000000000000000000000000000000000000000000000000000000600052604160045260246000fd5b6200086a816200078b565b81146200087657600080fd5b50565b61428f80620008896000396000f3fe60806040526004361061019c5760003560e01c80636352211e116100ec578063b88d4fde1161008a578063e77df06811610064578063e77df068146105ee578063e8a3d4851461060a578063e985e9c514610635578063f2fde38b146106725761019c565b8063b88d4fde1461055d578063c668286214610586578063c87b56dd146105b15761019c565b80638da5cb5b116100c65780638da5cb5b146104b357806395d89b41146104de578063a035b1fe14610509578063a22cb465146105345761019c565b80636352211e1461042257806370a082311461045f578063715018a61461049c5761019c565b806323b872dd11610159578063438b630011610133578063438b6300146103545780634f6ccce71461039157806355f804b3146103ce578063564b28a0146103f75761019c565b806323b872dd146102c55780632f745c59146102ee57806342842e0e1461032b5761019c565b806301ffc9a7146101a157806306fdde03146101de578063076736a214610209578063081812fc14610234578063095ea7b31461027157806318160ddd1461029a575b600080fd5b3480156101ad57600080fd5b506101c860048036038101906101c39190612e8e565b61069b565b6040516101d59190613a12565b60405180910390f35b3480156101ea57600080fd5b506101f3610715565b6040516102009190613a2d565b60405180910390f35b34801561021557600080fd5b5061021e6107a7565b60405161022b9190613d4f565b60405180910390f35b34801561024057600080fd5b5061025b60048036038101906102569190612f21565b6107ac565b6040516102689190613989565b60405180910390f35b34801561027d57600080fd5b5061029860048036038101906102939190612e52565b610831565b005b3480156102a657600080fd5b506102af610949565b6040516102bc9190613d4f565b60405180910390f35b3480156102d157600080fd5b506102ec60048036038101906102e79190612d4c565b610956565b005b3480156102fa57600080fd5b5061031560048036038101906103109190612e52565b6109b6565b6040516103229190613d4f565b60405180910390f35b34801561033757600080fd5b50610352600480360381019061034d9190612d4c565b610a5b565b005b34801561036057600080fd5b5061037b60048036038101906103769190612ce7565b610a7b565b60405161038891906139f0565b60405180910390f35b34801561039d57600080fd5b506103b860048036038101906103b39190612f21565b610b75565b6040516103c59190613d4f565b60405180910390f35b3480156103da57600080fd5b506103f560048036038101906103f09190612ee0565b610c0c565b005b34801561040357600080fd5b5061040c610ca2565b6040516104199190613d4f565b60405180910390f35b34801561042e57600080fd5b5061044960048036038101906104449190612f21565b610ca8565b6040516104569190613989565b60405180910390f35b34801561046b57600080fd5b5061048660048036038101906104819190612ce7565b610d5a565b6040516104939190613d4f565b60405180910390f35b3480156104a857600080fd5b506104b1610e12565b005b3480156104bf57600080fd5b506104c8610e9a565b6040516104d59190613989565b60405180910390f35b3480156104ea57600080fd5b506104f3610ec4565b6040516105009190613a2d565b60405180910390f35b34801561051557600080fd5b5061051e610f56565b60405161052b9190613d4f565b60405180910390f35b34801561054057600080fd5b5061055b60048036038101906105569190612e16565b610f62565b005b34801561056957600080fd5b50610584600480360381019061057f9190612d9b565b6110e3565b005b34801561059257600080fd5b5061059b611145565b6040516105a89190613a2d565b60405180910390f35b3480156105bd57600080fd5b506105d860048036038101906105d39190612f21565b6111d3565b6040516105e59190613a2d565b60405180910390f35b61060860048036038101906106039190612f21565b611289565b005b34801561061657600080fd5b5061061f61179d565b60405161062c9190613a2d565b60405180910390f35b34801561064157600080fd5b5061065c60048036038101906106579190612d10565b6117bd565b6040516106699190613a12565b60405180910390f35b34801561067e57600080fd5b5061069960048036038101906106949190612ce7565b611851565b005b60007f780e9d63000000000000000000000000000000000000000000000000000000007bffffffffffffffffffffffffffffffffffffffffffffffffffffffff1916827bffffffffffffffffffffffffffffffffffffffffffffffffffffffff1916148061070e575061070d82611949565b5b9050919050565b60606000805461072490614057565b80601f016020809104026020016040519081016040528092919081815260200182805461075090614057565b801561079d5780601f106107725761010080835404028352916020019161079d565b820191906000526020600020905b81548152906001019060200180831161078057829003601f168201915b5050505050905090565b600581565b60006107b782611a2b565b6107f6576040517f08c379a00000000000000000000000000000000000000000000000000000000081526004016107ed90613bcf565b60405180910390fd5b6004600083815260200190815260200160002060009054906101000a900473ffffffffffffffffffffffffffffffffffffffff169050919050565b600061083c82610ca8565b90508073ffffffffffffffffffffffffffffffffffffffff168373ffffffffffffffffffffffffffffffffffffffff1614156108ad576040517f08c379a00000000000000000000000000000000000000000000000000000000081526004016108a490613ccf565b60405180910390fd5b8073ffffffffffffffffffffffffffffffffffffffff166108cc611a97565b73ffffffffffffffffffffffffffffffffffffffff1614806108fb57506108fa816108f5611a97565b6117bd565b5b61093a576040517f08c379a000000000000000000000000000000000000000000000000000000000815260040161093190613b4f565b60405180910390fd5b6109448383611a9f565b505050565b6000600880549050905090565b610967610961611a97565b82611b58565b6109a6576040517f08c379a000000000000000000000000000000000000000000000000000000000815260040161099d90613d0f565b60405180910390fd5b6109b1838383611c36565b505050565b60006109c183610d5a565b8210610a02576040517f08c379a00000000000000000000000000000000000000000000000000000000081526004016109f990613a4f565b60405180910390fd5b600660008473ffffffffffffffffffffffffffffffffffffffff1673ffffffffffffffffffffffffffffffffffffffff168152602001908152602001600020600083815260200190815260200160002054905092915050565b610a76838383604051806020016040528060008152506110e3565b505050565b60606000610a8883610d5a565b905060008167ffffffffffffffff811115610acc577f4e487b7100000000000000000000000000000000000000000000000000000000600052604160045260246000fd5b604051908082528060200260200182016040528015610afa5781602001602082028036833780820191505090505b50905060005b82811015610b6a57610b1285826109b6565b828281518110610b4b577f4e487b7100000000000000000000000000000000000000000000000000000000600052603260045260246000fd5b6020026020010181815250508080610b6290614089565b915050610b00565b508092505050919050565b6000610b7f610949565b8210610bc0576040517f08c379a0000000000000000000000000000000000000000000000000000000008152600401610bb790613d2f565b60405180910390fd5b60088281548110610bfa577f4e487b7100000000000000000000000000000000000000000000000000000000600052603260045260246000fd5b90600052602060002001549050919050565b610c14611a97565b73ffffffffffffffffffffffffffffffffffffffff16610c32610e9a565b73ffffffffffffffffffffffffffffffffffffffff1614610c88576040517f08c379a0000000000000000000000000000000000000000000000000000000008152600401610c7f90613c0f565b60405180910390fd5b80600f9080519060200190610c9e929190612b0b565b5050565b600b5481565b6000806002600084815260200190815260200160002060009054906101000a900473ffffffffffffffffffffffffffffffffffffffff169050600073ffffffffffffffffffffffffffffffffffffffff168173ffffffffffffffffffffffffffffffffffffffff161415610d51576040517f08c379a0000000000000000000000000000000000000000000000000000000008152600401610d4890613b8f565b60405180910390fd5b80915050919050565b60008073ffffffffffffffffffffffffffffffffffffffff168273ffffffffffffffffffffffffffffffffffffffff161415610dcb576040517f08c379a0000000000000000000000000000000000000000000000000000000008152600401610dc290613b6f565b60405180910390fd5b600360008373ffffffffffffffffffffffffffffffffffffffff1673ffffffffffffffffffffffffffffffffffffffff168152602001908152602001600020549050919050565b610e1a611a97565b73ffffffffffffffffffffffffffffffffffffffff16610e38610e9a565b73ffffffffffffffffffffffffffffffffffffffff1614610e8e576040517f08c379a0000000000000000000000000000000000000000000000000000000008152600401610e8590613c0f565b60405180910390fd5b610e986000611e92565b565b6000600a60009054906101000a900473ffffffffffffffffffffffffffffffffffffffff16905090565b606060018054610ed390614057565b80601f0160208091040260200160405190810160405280929190818152602001828054610eff90614057565b8015610f4c5780601f10610f2157610100808354040283529160200191610f4c565b820191906000526020600020905b815481529060010190602001808311610f2f57829003601f168201915b5050505050905090565b67016345785d8a000081565b610f6a611a97565b73ffffffffffffffffffffffffffffffffffffffff168273ffffffffffffffffffffffffffffffffffffffff161415610fd8576040517f08c379a0000000000000000000000000000000000000000000000000000000008152600401610fcf90613b0f565b60405180910390fd5b8060056000610fe5611a97565b73ffffffffffffffffffffffffffffffffffffffff1673ffffffffffffffffffffffffffffffffffffffff16815260200190815260200160002060008473ffffffffffffffffffffffffffffffffffffffff1673ffffffffffffffffffffffffffffffffffffffff16815260200190815260200160002060006101000a81548160ff0219169083151502179055508173ffffffffffffffffffffffffffffffffffffffff16611092611a97565b73ffffffffffffffffffffffffffffffffffffffff167f17307eab39ab6107e8899845ad3d59bd9653f200f220920489ca2b5937696c31836040516110d79190613a12565b60405180910390a35050565b6110f46110ee611a97565b83611b58565b611133576040517f08c379a000000000000000000000000000000000000000000000000000000000815260040161112a90613d0f565b60405180910390fd5b61113f84848484611f58565b50505050565b600c805461115290614057565b80601f016020809104026020016040519081016040528092919081815260200182805461117e90614057565b80156111cb5780601f106111a0576101008083540402835291602001916111cb565b820191906000526020600020905b8154815290600101906020018083116111ae57829003601f168201915b505050505081565b60606111de82611a2b565b61121d576040517f08c379a000000000000000000000000000000000000000000000000000000000815260040161121490613c4f565b60405180910390fd5b6000611227611fb4565b905060008151116112475760405180602001604052806000815250611281565b8061125d6001856112589190613e8c565b612046565b600c60405160200161127193929190613958565b6040516020818303038152906040525b915050919050565b600b54611294610949565b106112d4576040517f08c379a00000000000000000000000000000000000000000000000000000000081526004016112cb90613acf565b60405180910390fd5b60008111611317576040517f08c379a000000000000000000000000000000000000000000000000000000000815260040161130e90613cef565b60405180910390fd5b600581111561135b576040517f08c379a000000000000000000000000000000000000000000000000000000000815260040161135290613bef565b60405180910390fd5b600b5481611367610949565b6113719190613e8c565b11156113b2576040517f08c379a00000000000000000000000000000000000000000000000000000000081526004016113a990613caf565b60405180910390fd5b600e80549050600d80549050146113fe576040517f08c379a00000000000000000000000000000000000000000000000000000000081526004016113f590613c6f565b60405180910390fd5b600061141b8267016345785d8a00006121f390919063ffffffff16565b905080341015611460576040517f08c379a000000000000000000000000000000000000000000000000000000000815260040161145790613c8f565b60405180910390fd5b60005b8281101561148f5761147c33611477610949565b612209565b808061148790614089565b915050611463565b50600d6000815481106114cb577f4e487b7100000000000000000000000000000000000000000000000000000000600052603260045260246000fd5b9060005260206000200160009054906101000a900473ffffffffffffffffffffffffffffffffffffffff1673ffffffffffffffffffffffffffffffffffffffff166108fc611567600e60008154811061154d577f4e487b7100000000000000000000000000000000000000000000000000000000600052603260045260246000fd5b90600052602060002001548461222790919063ffffffff16565b9081150290604051600060405180830381858888f19350505050158015611592573d6000803e3d6000fd5b50600d6001815481106115ce577f4e487b7100000000000000000000000000000000000000000000000000000000600052603260045260246000fd5b9060005260206000200160009054906101000a900473ffffffffffffffffffffffffffffffffffffffff1673ffffffffffffffffffffffffffffffffffffffff166108fc61166a600e600181548110611650577f4e487b7100000000000000000000000000000000000000000000000000000000600052603260045260246000fd5b90600052602060002001548461222790919063ffffffff16565b9081150290604051600060405180830381858888f19350505050158015611695573d6000803e3d6000fd5b50600d6002815481106116d1577f4e487b7100000000000000000000000000000000000000000000000000000000600052603260045260246000fd5b9060005260206000200160009054906101000a900473ffffffffffffffffffffffffffffffffffffffff1673ffffffffffffffffffffffffffffffffffffffff166108fc61176d600e600281548110611753577f4e487b7100000000000000000000000000000000000000000000000000000000600052603260045260246000fd5b90600052602060002001548461222790919063ffffffff16565b9081150290604051600060405180830381858888f19350505050158015611798573d6000803e3d6000fd5b505050565b60606040518060600160405280602d815260200161422d602d9139905090565b6000600560008473ffffffffffffffffffffffffffffffffffffffff1673ffffffffffffffffffffffffffffffffffffffff16815260200190815260200160002060008373ffffffffffffffffffffffffffffffffffffffff1673ffffffffffffffffffffffffffffffffffffffff16815260200190815260200160002060009054906101000a900460ff16905092915050565b611859611a97565b73ffffffffffffffffffffffffffffffffffffffff16611877610e9a565b73ffffffffffffffffffffffffffffffffffffffff16146118cd576040517f08c379a00000000000000000000000000000000000000000000000000000000081526004016118c490613c0f565b60405180910390fd5b600073ffffffffffffffffffffffffffffffffffffffff168173ffffffffffffffffffffffffffffffffffffffff16141561193d576040517f08c379a000000000000000000000000000000000000000000000000000000000815260040161193490613a8f565b60405180910390fd5b61194681611e92565b50565b60007f80ac58cd000000000000000000000000000000000000000000000000000000007bffffffffffffffffffffffffffffffffffffffffffffffffffffffff1916827bffffffffffffffffffffffffffffffffffffffffffffffffffffffff19161480611a1457507f5b5e139f000000000000000000000000000000000000000000000000000000007bffffffffffffffffffffffffffffffffffffffffffffffffffffffff1916827bffffffffffffffffffffffffffffffffffffffffffffffffffffffff1916145b80611a245750611a238261223d565b5b9050919050565b60008073ffffffffffffffffffffffffffffffffffffffff166002600084815260200190815260200160002060009054906101000a900473ffffffffffffffffffffffffffffffffffffffff1673ffffffffffffffffffffffffffffffffffffffff1614159050919050565b600033905090565b816004600083815260200190815260200160002060006101000a81548173ffffffffffffffffffffffffffffffffffffffff021916908373ffffffffffffffffffffffffffffffffffffffff160217905550808273ffffffffffffffffffffffffffffffffffffffff16611b1283610ca8565b73ffffffffffffffffffffffffffffffffffffffff167f8c5be1e5ebec7d5bd14f71427d1e84f3dd0314c0f7b2291e5b200ac8c7c3b92560405160405180910390a45050565b6000611b6382611a2b565b611ba2576040517f08c379a0000000000000000000000000000000000000000000000000000000008152600401611b9990613b2f565b60405180910390fd5b6000611bad83610ca8565b90508073ffffffffffffffffffffffffffffffffffffffff168473ffffffffffffffffffffffffffffffffffffffff161480611c1c57508373ffffffffffffffffffffffffffffffffffffffff16611c04846107ac565b73ffffffffffffffffffffffffffffffffffffffff16145b80611c2d5750611c2c81856117bd565b5b91505092915050565b8273ffffffffffffffffffffffffffffffffffffffff16611c5682610ca8565b73ffffffffffffffffffffffffffffffffffffffff1614611cac576040517f08c379a0000000000000000000000000000000000000000000000000000000008152600401611ca390613c2f565b60405180910390fd5b600073ffffffffffffffffffffffffffffffffffffffff168273ffffffffffffffffffffffffffffffffffffffff161415611d1c576040517f08c379a0000000000000000000000000000000000000000000000000000000008152600401611d1390613aef565b60405180910390fd5b611d278383836122a7565b611d32600082611a9f565b6001600360008573ffffffffffffffffffffffffffffffffffffffff1673ffffffffffffffffffffffffffffffffffffffff1681526020019081526020016000206000828254611d829190613f6d565b925050819055506001600360008473ffffffffffffffffffffffffffffffffffffffff1673ffffffffffffffffffffffffffffffffffffffff1681526020019081526020016000206000828254611dd99190613e8c565b92505081905550816002600083815260200190815260200160002060006101000a81548173ffffffffffffffffffffffffffffffffffffffff021916908373ffffffffffffffffffffffffffffffffffffffff160217905550808273ffffffffffffffffffffffffffffffffffffffff168473ffffffffffffffffffffffffffffffffffffffff167fddf252ad1be2c89b69c2b068fc378daa952ba7f163c4a11628f55a4df523b3ef60405160405180910390a4505050565b6000600a60009054906101000a900473ffffffffffffffffffffffffffffffffffffffff16905081600a60006101000a81548173ffffffffffffffffffffffffffffffffffffffff021916908373ffffffffffffffffffffffffffffffffffffffff1602179055508173ffffffffffffffffffffffffffffffffffffffff168173ffffffffffffffffffffffffffffffffffffffff167f8be0079c531659141344cd1fd0a4f28419497f9722a3daafe3b4186f6b6457e060405160405180910390a35050565b611f63848484611c36565b611f6f848484846123bb565b611fae576040517f08c379a0000000000000000000000000000000000000000000000000000000008152600401611fa590613a6f565b60405180910390fd5b50505050565b6060600f8054611fc390614057565b80601f0160208091040260200160405190810160405280929190818152602001828054611fef90614057565b801561203c5780601f106120115761010080835404028352916020019161203c565b820191906000526020600020905b81548152906001019060200180831161201f57829003601f168201915b5050505050905090565b6060600082141561208e576040518060400160405280600181526020017f300000000000000000000000000000000000000000000000000000000000000081525090506121ee565b600082905060005b600082146120c05780806120a990614089565b915050600a826120b99190613ee2565b9150612096565b60008167ffffffffffffffff811115612102577f4e487b7100000000000000000000000000000000000000000000000000000000600052604160045260246000fd5b6040519080825280601f01601f1916602001820160405280156121345781602001600182028036833780820191505090505b5090505b600085146121e75760018261214d9190613f6d565b9150600a8561215c91906140d2565b60306121689190613e8c565b60f81b8183815181106121a4577f4e487b7100000000000000000000000000000000000000000000000000000000600052603260045260246000fd5b60200101907effffffffffffffffffffffffffffffffffffffffffffffffffffffffffffff1916908160001a905350600a856121e09190613ee2565b9450612138565b8093505050505b919050565b600081836122019190613f13565b905092915050565b612223828260405180602001604052806000815250612552565b5050565b600081836122359190613ee2565b905092915050565b60007f01ffc9a7000000000000000000000000000000000000000000000000000000007bffffffffffffffffffffffffffffffffffffffffffffffffffffffff1916827bffffffffffffffffffffffffffffffffffffffffffffffffffffffff1916149050919050565b6122b28383836125ad565b600073ffffffffffffffffffffffffffffffffffffffff168373ffffffffffffffffffffffffffffffffffffffff1614156122f5576122f0816125b2565b612334565b8173ffffffffffffffffffffffffffffffffffffffff168373ffffffffffffffffffffffffffffffffffffffff16146123335761233283826125fb565b5b5b600073ffffffffffffffffffffffffffffffffffffffff168273ffffffffffffffffffffffffffffffffffffffff1614156123775761237281612768565b6123b6565b8273ffffffffffffffffffffffffffffffffffffffff168273ffffffffffffffffffffffffffffffffffffffff16146123b5576123b482826128ab565b5b5b505050565b60006123dc8473ffffffffffffffffffffffffffffffffffffffff1661292a565b15612545578373ffffffffffffffffffffffffffffffffffffffff1663150b7a02612405611a97565b8786866040518563ffffffff1660e01b815260040161242794939291906139a4565b602060405180830381600087803b15801561244157600080fd5b505af192505050801561247257506040513d601f19601f8201168201806040525081019061246f9190612eb7565b60015b6124f5573d80600081146124a2576040519150601f19603f3d011682016040523d82523d6000602084013e6124a7565b606091505b506000815114156124ed576040517f08c379a00000000000000000000000000000000000000000000000000000000081526004016124e490613a6f565b60405180910390fd5b805181602001fd5b63150b7a0260e01b7bffffffffffffffffffffffffffffffffffffffffffffffffffffffff1916817bffffffffffffffffffffffffffffffffffffffffffffffffffffffff19161491505061254a565b600190505b949350505050565b61255c838361293d565b61256960008484846123bb565b6125a8576040517f08c379a000000000000000000000000000000000000000000000000000000000815260040161259f90613a6f565b60405180910390fd5b505050565b505050565b6008805490506009600083815260200190815260200160002081905550600881908060018154018082558091505060019003906000526020600020016000909190919091505550565b6000600161260884610d5a565b6126129190613f6d565b90506000600760008481526020019081526020016000205490508181146126f7576000600660008673ffffffffffffffffffffffffffffffffffffffff1673ffffffffffffffffffffffffffffffffffffffff168152602001908152602001600020600084815260200190815260200160002054905080600660008773ffffffffffffffffffffffffffffffffffffffff1673ffffffffffffffffffffffffffffffffffffffff168152602001908152602001600020600084815260200190815260200160002081905550816007600083815260200190815260200160002081905550505b6007600084815260200190815260200160002060009055600660008573ffffffffffffffffffffffffffffffffffffffff1673ffffffffffffffffffffffffffffffffffffffff16815260200190815260200160002060008381526020019081526020016000206000905550505050565b6000600160088054905061277c9190613f6d565b90506000600960008481526020019081526020016000205490506000600883815481106127d2577f4e487b7100000000000000000000000000000000000000000000000000000000600052603260045260246000fd5b90600052602060002001549050806008838154811061281a577f4e487b7100000000000000000000000000000000000000000000000000000000600052603260045260246000fd5b90600052602060002001819055508160096000838152602001908152602001600020819055506009600085815260200190815260200160002060009055600880548061288f577f4e487b7100000000000000000000000000000000000000000000000000000000600052603160045260246000fd5b6001900381819060005260206000200160009055905550505050565b60006128b683610d5a565b905081600660008573ffffffffffffffffffffffffffffffffffffffff1673ffffffffffffffffffffffffffffffffffffffff168152602001908152602001600020600083815260200190815260200160002081905550806007600084815260200190815260200160002081905550505050565b600080823b905060008111915050919050565b600073ffffffffffffffffffffffffffffffffffffffff168273ffffffffffffffffffffffffffffffffffffffff1614156129ad576040517f08c379a00000000000000000000000000000000000000000000000000000000081526004016129a490613baf565b60405180910390fd5b6129b681611a2b565b156129f6576040517f08c379a00000000000000000000000000000000000000000000000000000000081526004016129ed90613aaf565b60405180910390fd5b612a02600083836122a7565b6001600360008473ffffffffffffffffffffffffffffffffffffffff1673ffffffffffffffffffffffffffffffffffffffff1681526020019081526020016000206000828254612a529190613e8c565b92505081905550816002600083815260200190815260200160002060006101000a81548173ffffffffffffffffffffffffffffffffffffffff021916908373ffffffffffffffffffffffffffffffffffffffff160217905550808273ffffffffffffffffffffffffffffffffffffffff16600073ffffffffffffffffffffffffffffffffffffffff167fddf252ad1be2c89b69c2b068fc378daa952ba7f163c4a11628f55a4df523b3ef60405160405180910390a45050565b828054612b1790614057565b90600052602060002090601f016020900481019282612b395760008555612b80565b82601f10612b5257805160ff1916838001178555612b80565b82800160010185558215612b80579182015b82811115612b7f578251825591602001919060010190612b64565b5b509050612b8d9190612b91565b5090565b5b80821115612baa576000816000905550600101612b92565b5090565b6000612bc1612bbc84613d9b565b613d6a565b905082815260208101848484011115612bd957600080fd5b612be4848285614015565b509392505050565b6000612bff612bfa84613dcb565b613d6a565b905082815260208101848484011115612c1757600080fd5b612c22848285614015565b509392505050565b600081359050612c39816141d0565b92915050565b600081359050612c4e816141e7565b92915050565b600081359050612c63816141fe565b92915050565b600081519050612c78816141fe565b92915050565b600082601f830112612c8f57600080fd5b8135612c9f848260208601612bae565b91505092915050565b600082601f830112612cb957600080fd5b8135612cc9848260208601612bec565b91505092915050565b600081359050612ce181614215565b92915050565b600060208284031215612cf957600080fd5b6000612d0784828501612c2a565b91505092915050565b60008060408385031215612d2357600080fd5b6000612d3185828601612c2a565b9250506020612d4285828601612c2a565b9150509250929050565b600080600060608486031215612d6157600080fd5b6000612d6f86828701612c2a565b9350506020612d8086828701612c2a565b9250506040612d9186828701612cd2565b9150509250925092565b60008060008060808587031215612db157600080fd5b6000612dbf87828801612c2a565b9450506020612dd087828801612c2a565b9350506040612de187828801612cd2565b925050606085013567ffffffffffffffff811115612dfe57600080fd5b612e0a87828801612c7e565b91505092959194509250565b60008060408385031215612e2957600080fd5b6000612e3785828601612c2a565b9250506020612e4885828601612c3f565b9150509250929050565b60008060408385031215612e6557600080fd5b6000612e7385828601612c2a565b9250506020612e8485828601612cd2565b9150509250929050565b600060208284031215612ea057600080fd5b6000612eae84828501612c54565b91505092915050565b600060208284031215612ec957600080fd5b6000612ed784828501612c69565b91505092915050565b600060208284031215612ef257600080fd5b600082013567ffffffffffffffff811115612f0c57600080fd5b612f1884828501612ca8565b91505092915050565b600060208284031215612f3357600080fd5b6000612f4184828501612cd2565b91505092915050565b6000612f56838361393a565b60208301905092915050565b612f6b81613fa1565b82525050565b6000612f7c82613e20565b612f868185613e4e565b9350612f9183613dfb565b8060005b83811015612fc2578151612fa98882612f4a565b9750612fb483613e41565b925050600181019050612f95565b5085935050505092915050565b612fd881613fb3565b82525050565b6000612fe982613e2b565b612ff38185613e5f565b9350613003818560208601614024565b61300c816141bf565b840191505092915050565b600061302282613e36565b61302c8185613e70565b935061303c818560208601614024565b613045816141bf565b840191505092915050565b600061305b82613e36565b6130658185613e81565b9350613075818560208601614024565b80840191505092915050565b6000815461308e81614057565b6130988186613e81565b945060018216600081146130b357600181146130c4576130f7565b60ff198316865281860193506130f7565b6130cd85613e0b565b60005b838110156130ef578154818901526001820191506020810190506130d0565b838801955050505b50505092915050565b600061310d602b83613e70565b91507f455243373231456e756d657261626c653a206f776e657220696e646578206f7560008301527f74206f6620626f756e64730000000000000000000000000000000000000000006020830152604082019050919050565b6000613173603283613e70565b91507f4552433732313a207472616e7366657220746f206e6f6e20455243373231526560008301527f63656976657220696d706c656d656e74657200000000000000000000000000006020830152604082019050919050565b60006131d9602683613e70565b91507f4f776e61626c653a206e6577206f776e657220697320746865207a65726f206160008301527f64647265737300000000000000000000000000000000000000000000000000006020830152604082019050919050565b600061323f601c83613e70565b91507f4552433732313a20746f6b656e20616c7265616479206d696e746564000000006000830152602082019050919050565b600061327f600e83613e70565b91507f53616c652068617320656e6465640000000000000000000000000000000000006000830152602082019050919050565b60006132bf602483613e70565b91507f4552433732313a207472616e7366657220746f20746865207a65726f2061646460008301527f72657373000000000000000000000000000000000000000000000000000000006020830152604082019050919050565b6000613325601983613e70565b91507f4552433732313a20617070726f766520746f2063616c6c6572000000000000006000830152602082019050919050565b6000613365602c83613e70565b91507f4552433732313a206f70657261746f7220717565727920666f72206e6f6e657860008301527f697374656e7420746f6b656e00000000000000000000000000000000000000006020830152604082019050919050565b60006133cb603883613e70565b91507f4552433732313a20617070726f76652063616c6c6572206973206e6f74206f7760008301527f6e6572206e6f7220617070726f76656420666f7220616c6c00000000000000006020830152604082019050919050565b6000613431602a83613e70565b91507f4552433732313a2062616c616e636520717565727920666f7220746865207a6560008301527f726f2061646472657373000000000000000000000000000000000000000000006020830152604082019050919050565b6000613497602983613e70565b91507f4552433732313a206f776e657220717565727920666f72206e6f6e657869737460008301527f656e7420746f6b656e00000000000000000000000000000000000000000000006020830152604082019050919050565b60006134fd602083613e70565b91507f4552433732313a206d696e7420746f20746865207a65726f20616464726573736000830152602082019050919050565b600061353d602c83613e70565b91507f4552433732313a20617070726f76656420717565727920666f72206e6f6e657860008301527f697374656e7420746f6b656e00000000000000000000000000000000000000006020830152604082019050919050565b60006135a3600983613e70565b91507f45786365656473203500000000000000000000000000000000000000000000006000830152602082019050919050565b60006135e3602083613e70565b91507f4f776e61626c653a2063616c6c6572206973206e6f7420746865206f776e65726000830152602082019050919050565b6000613623602983613e70565b91507f4552433732313a207472616e73666572206f6620746f6b656e2074686174206960008301527f73206e6f74206f776e00000000000000000000000000000000000000000000006020830152604082019050919050565b6000613689602f83613e70565b91507f4552433732314d657461646174613a2055524920717565727920666f72206e6f60008301527f6e6578697374656e7420746f6b656e00000000000000000000000000000000006020830152604082019050919050565b60006136ef603c83613e70565b91507f5061796d656e7453706c69747465723a20616472657373657320616e6420736860008301527f6172657320617265206e6f74207468652073616d65206c656e677468000000006020830152604082019050919050565b6000613755601183613e70565b91507f56616c75652062656c6f772070726963650000000000000000000000000000006000830152602082019050919050565b6000613795601583613e70565b91507f4e6f7420656e6f75676820746f6b656e206c65667400000000000000000000006000830152602082019050919050565b60006137d5602183613e70565b91507f4552433732313a20617070726f76616c20746f2063757272656e74206f776e6560008301527f72000000000000000000000000000000000000000000000000000000000000006020830152604082019050919050565b600061383b601b83613e70565b91507f596f752063616e2774206d696e74203020426f78696e67426f797a00000000006000830152602082019050919050565b600061387b603183613e70565b91507f4552433732313a207472616e736665722063616c6c6572206973206e6f74206f60008301527f776e6572206e6f7220617070726f7665640000000000000000000000000000006020830152604082019050919050565b60006138e1602c83613e70565b91507f455243373231456e756d657261626c653a20676c6f62616c20696e646578206f60008301527f7574206f6620626f756e647300000000000000000000000000000000000000006020830152604082019050919050565b6139438161400b565b82525050565b6139528161400b565b82525050565b60006139648286613050565b91506139708285613050565b915061397c8284613081565b9150819050949350505050565b600060208201905061399e6000830184612f62565b92915050565b60006080820190506139b96000830187612f62565b6139c66020830186612f62565b6139d36040830185613949565b81810360608301526139e58184612fde565b905095945050505050565b60006020820190508181036000830152613a0a8184612f71565b905092915050565b6000602082019050613a276000830184612fcf565b92915050565b60006020820190508181036000830152613a478184613017565b905092915050565b60006020820190508181036000830152613a6881613100565b9050919050565b60006020820190508181036000830152613a8881613166565b9050919050565b60006020820190508181036000830152613aa8816131cc565b9050919050565b60006020820190508181036000830152613ac881613232565b9050919050565b60006020820190508181036000830152613ae881613272565b9050919050565b60006020820190508181036000830152613b08816132b2565b9050919050565b60006020820190508181036000830152613b2881613318565b9050919050565b60006020820190508181036000830152613b4881613358565b9050919050565b60006020820190508181036000830152613b68816133be565b9050919050565b60006020820190508181036000830152613b8881613424565b9050919050565b60006020820190508181036000830152613ba88161348a565b9050919050565b60006020820190508181036000830152613bc8816134f0565b9050919050565b60006020820190508181036000830152613be881613530565b9050919050565b60006020820190508181036000830152613c0881613596565b9050919050565b60006020820190508181036000830152613c28816135d6565b9050919050565b60006020820190508181036000830152613c4881613616565b9050919050565b60006020820190508181036000830152613c688161367c565b9050919050565b60006020820190508181036000830152613c88816136e2565b9050919050565b60006020820190508181036000830152613ca881613748565b9050919050565b60006020820190508181036000830152613cc881613788565b9050919050565b60006020820190508181036000830152613ce8816137c8565b9050919050565b60006020820190508181036000830152613d088161382e565b9050919050565b60006020820190508181036000830152613d288161386e565b9050919050565b60006020820190508181036000830152613d48816138d4565b9050919050565b6000602082019050613d646000830184613949565b92915050565b6000604051905081810181811067ffffffffffffffff82111715613d9157613d90614190565b5b8060405250919050565b600067ffffffffffffffff821115613db657613db5614190565b5b601f19601f8301169050602081019050919050565b600067ffffffffffffffff821115613de657613de5614190565b5b601f19601f8301169050602081019050919050565b6000819050602082019050919050565b60008190508160005260206000209050919050565b600081519050919050565b600081519050919050565b600081519050919050565b6000602082019050919050565b600082825260208201905092915050565b600082825260208201905092915050565b600082825260208201905092915050565b600081905092915050565b6000613e978261400b565b9150613ea28361400b565b9250827fffffffffffffffffffffffffffffffffffffffffffffffffffffffffffffffff03821115613ed757613ed6614103565b5b828201905092915050565b6000613eed8261400b565b9150613ef88361400b565b925082613f0857613f07614132565b5b828204905092915050565b6000613f1e8261400b565b9150613f298361400b565b9250817fffffffffffffffffffffffffffffffffffffffffffffffffffffffffffffffff0483118215151615613f6257613f61614103565b5b828202905092915050565b6000613f788261400b565b9150613f838361400b565b925082821015613f9657613f95614103565b5b828203905092915050565b6000613fac82613feb565b9050919050565b60008115159050919050565b60007fffffffff0000000000000000000000000000000000000000000000000000000082169050919050565b600073ffffffffffffffffffffffffffffffffffffffff82169050919050565b6000819050919050565b82818337600083830152505050565b60005b83811015614042578082015181840152602081019050614027565b83811115614051576000848401525b50505050565b6000600282049050600182168061406f57607f821691505b6020821081141561408357614082614161565b5b50919050565b60006140948261400b565b91507fffffffffffffffffffffffffffffffffffffffffffffffffffffffffffffffff8214156140c7576140c6614103565b5b600182019050919050565b60006140dd8261400b565b91506140e88361400b565b9250826140f8576140f7614132565b5b828206905092915050565b7f4e487b7100000000000000000000000000000000000000000000000000000000600052601160045260246000fd5b7f4e487b7100000000000000000000000000000000000000000000000000000000600052601260045260246000fd5b7f4e487b7100000000000000000000000000000000000000000000000000000000600052602260045260246000fd5b7f4e487b7100000000000000000000000000000000000000000000000000000000600052604160045260246000fd5b6000601f19601f8301169050919050565b6141d981613fa1565b81146141e457600080fd5b50565b6141f081613fb3565b81146141fb57600080fd5b50565b61420781613fbf565b811461421257600080fd5b50565b61421e8161400b565b811461422957600080fd5b5056fe68747470733a2f2f7777772e626f78696e67626f797a2e636f6d2f636f6e74726163742d696e666f2e6a736f6ea264697066735822122074220046bb620954d7cfcfde4ba39fa1ba4aa94f8ec033b29d2f1a17ba295da364736f6c63430008000033",
  "immutableReferences": {},
  "source": "// SPDX-License-Identifier: MIT\r\npragma solidity ^0.8.0;\r\n\r\nimport \"@openzeppelin/contracts/token/ERC721/extensions/ERC721Enumerable.sol\";\r\nimport \"@openzeppelin/contracts/access/Ownable.sol\";\r\nimport \"@openzeppelin/contracts/utils/math/SafeMath.sol\";\r\nimport \"@openzeppelin/contracts/utils/Strings.sol\";\r\n\r\ncontract BoxingBoyz is ERC721Enumerable, Ownable {\r\n    using SafeMath for uint256;\r\n    using Strings for uint256;\r\n\r\n    uint public availableToken = 11111;\r\n    uint256 public constant price = 0.1 ether;\r\n    uint public constant maxPurchaseSize = 5;\r\n    string public baseExtension = \".json\";\r\n\r\n    address[] private addressList = [\r\n    0xBD836D554f431616B444a36673a4C4e05fca2110,\r\n    0x423A694Fe08c3F070f761Cc5B4D2A8731EbD8d56,\r\n    0xEB186Ef4Dc1A29730beb5ba49Bf129c3Ef59d356\r\n  ];\r\n  uint[] private divList = [\r\n    3,\r\n    3,\r\n    3\r\n  ];\r\n\r\n    string _baseTokenURI;\r\n\r\n    constructor(string memory theBaseURI, uint numToken) ERC721(\"BoxingBoyz\", \"BOXINGBOYZ\")  {\r\n        setBaseURI(theBaseURI);\r\n        availableToken = numToken;\r\n    }\r\n\r\n    modifier saleIsOpen {\r\n        require(totalSupply() < availableToken, \"Sale has ended\");\r\n        _;\r\n    }\r\n\r\n    function mintBB(uint _count) public payable saleIsOpen {\r\n        require(_count > 0, \"You can't mint 0 BoxingBoyz\");\r\n        require(_count <= maxPurchaseSize, \"Exceeds 5\");\r\n        require(totalSupply() + _count <= availableToken, \"Not enough token left\");\r\n        require(addressList.length == divList.length, \"PaymentSplitter: adresses and shares are not the same length\");\r\n\r\n        uint256 orderPrice = price.mul(_count);\r\n        require(msg.value >= orderPrice, \"Value below price\");\r\n\r\n        for(uint i = 0; i < _count; i++){\r\n            _safeMint(msg.sender, totalSupply()); //Enumerable\r\n        }\r\n\r\n\r\n        payable(addressList[0]).transfer(orderPrice.div(divList[0]));\r\n        payable(addressList[1]).transfer(orderPrice.div(divList[1]));\r\n        payable(addressList[2]).transfer(orderPrice.div(divList[2]));\r\n    }\r\n\r\n    function setBaseURI(string memory baseURI) public onlyOwner {\r\n        _baseTokenURI = baseURI;\r\n    }\r\n\r\n    function _baseURI() internal view virtual override returns (string memory) {\r\n        return _baseTokenURI;\r\n    }\r\n\r\n    function contractURI() public pure returns (string memory) {\r\n        return \"https://www.boxingboyz.com/contract-info.json\";\r\n    }\r\n\r\n    function tokenURI(uint256 tokenId) public view virtual override returns (string memory){\r\n    require(\r\n      _exists(tokenId),\r\n      \"ERC721Metadata: URI query for nonexistent token\"\r\n    );\r\n\r\n    string memory currentBaseURI = _baseURI();\r\n    return bytes(currentBaseURI).length > 0\r\n        ? string(abi.encodePacked(currentBaseURI, (tokenId + 1).toString(), baseExtension))\r\n        : \"\";\r\n  }\r\n\r\n    function walletOfOwner(address _owner) external view returns(uint256[] memory) {\r\n        uint tokenCount = balanceOf(_owner);\r\n\r\n        uint256[] memory tokensId = new uint256[](tokenCount);\r\n        for(uint i = 0; i < tokenCount; i++){\r\n            tokensId[i] = tokenOfOwnerByIndex(_owner, i);\r\n        }\r\n\r\n        return tokensId;\r\n    }\r\n}",
  "sourcePath": "D:\\werk\\coding\\NoLimit\\NoLimit Portal\\BoxingBoyzNFT\\NFT\\contracts\\BoxingBoyz.sol",
  "compiler": {
    "name": "solc",
    "version": "0.8.0+commit.c7dfd78e.Emscripten.clang"
  },
  "schemaVersion": "3.4.3",
  "updatedAt": "2021-11-21T19:05:08.613Z",
  "networkType": "ethereum",
  "devdoc": {
    "kind": "dev",
    "methods": {
      "approve(address,uint256)": {
        "details": "See {IERC721-approve}."
      },
      "balanceOf(address)": {
        "details": "See {IERC721-balanceOf}."
      },
      "getApproved(uint256)": {
        "details": "See {IERC721-getApproved}."
      },
      "isApprovedForAll(address,address)": {
        "details": "See {IERC721-isApprovedForAll}."
      },
      "name()": {
        "details": "See {IERC721Metadata-name}."
      },
      "owner()": {
        "details": "Returns the address of the current owner."
      },
      "ownerOf(uint256)": {
        "details": "See {IERC721-ownerOf}."
      },
      "renounceOwnership()": {
        "details": "Leaves the contract without owner. It will not be possible to call `onlyOwner` functions anymore. Can only be called by the current owner. NOTE: Renouncing ownership will leave the contract without an owner, thereby removing any functionality that is only available to the owner."
      },
      "safeTransferFrom(address,address,uint256)": {
        "details": "See {IERC721-safeTransferFrom}."
      },
      "safeTransferFrom(address,address,uint256,bytes)": {
        "details": "See {IERC721-safeTransferFrom}."
      },
      "setApprovalForAll(address,bool)": {
        "details": "See {IERC721-setApprovalForAll}."
      },
      "supportsInterface(bytes4)": {
        "details": "See {IERC165-supportsInterface}."
      },
      "symbol()": {
        "details": "See {IERC721Metadata-symbol}."
      },
      "tokenByIndex(uint256)": {
        "details": "See {IERC721Enumerable-tokenByIndex}."
      },
      "tokenOfOwnerByIndex(address,uint256)": {
        "details": "See {IERC721Enumerable-tokenOfOwnerByIndex}."
      },
      "tokenURI(uint256)": {
        "details": "See {IERC721Metadata-tokenURI}."
      },
      "totalSupply()": {
        "details": "See {IERC721Enumerable-totalSupply}."
      },
      "transferFrom(address,address,uint256)": {
        "details": "See {IERC721-transferFrom}."
      },
      "transferOwnership(address)": {
        "details": "Transfers ownership of the contract to a new account (`newOwner`). Can only be called by the current owner."
      }
    },
    "version": 1
  },
  "userdoc": {
    "kind": "user",
    "methods": {},
    "version": 1
  }
}