{
  "contractName": "HODLHeads",
  "abi": [
    {
      "inputs": [
        {
          "internalType": "string",
          "name": "theBaseURI",
          "type": "string"
        },
        {
          "internalType": "address",
          "name": "owner",
          "type": "address"
        },
        {
          "internalType": "uint256",
          "name": "numToken",
          "type": "uint256"
        },
        {
          "internalType": "bool",
          "name": "debug",
          "type": "bool"
        }
      ],
      "stateMutability": "nonpayable",
      "type": "constructor"
    },
    {
      "anonymous": false,
      "inputs": [
        {
          "indexed": true,
          "internalType": "address",
          "name": "owner",
          "type": "address"
        },
        {
          "indexed": true,
          "internalType": "address",
          "name": "approved",
          "type": "address"
        },
        {
          "indexed": true,
          "internalType": "uint256",
          "name": "tokenId",
          "type": "uint256"
        }
      ],
      "name": "Approval",
      "type": "event"
    },
    {
      "anonymous": false,
      "inputs": [
        {
          "indexed": true,
          "internalType": "address",
          "name": "owner",
          "type": "address"
        },
        {
          "indexed": true,
          "internalType": "address",
          "name": "operator",
          "type": "address"
        },
        {
          "indexed": false,
          "internalType": "bool",
          "name": "approved",
          "type": "bool"
        }
      ],
      "name": "ApprovalForAll",
      "type": "event"
    },
    {
      "anonymous": false,
      "inputs": [
        {
          "indexed": true,
          "internalType": "address",
          "name": "previousOwner",
          "type": "address"
        },
        {
          "indexed": true,
          "internalType": "address",
          "name": "newOwner",
          "type": "address"
        }
      ],
      "name": "OwnershipTransferred",
      "type": "event"
    },
    {
      "anonymous": false,
      "inputs": [
        {
          "indexed": true,
          "internalType": "address",
          "name": "from",
          "type": "address"
        },
        {
          "indexed": true,
          "internalType": "address",
          "name": "to",
          "type": "address"
        },
        {
          "indexed": true,
          "internalType": "uint256",
          "name": "tokenId",
          "type": "uint256"
        }
      ],
      "name": "Transfer",
      "type": "event"
    },
    {
      "inputs": [
        {
          "internalType": "address",
          "name": "to",
          "type": "address"
        },
        {
          "internalType": "uint256",
          "name": "tokenId",
          "type": "uint256"
        }
      ],
      "name": "approve",
      "outputs": [],
      "stateMutability": "nonpayable",
      "type": "function"
    },
    {
      "inputs": [],
      "name": "availableToken",
      "outputs": [
        {
          "internalType": "uint256",
          "name": "",
          "type": "uint256"
        }
      ],
      "stateMutability": "view",
      "type": "function"
    },
    {
      "inputs": [
        {
          "internalType": "address",
          "name": "owner",
          "type": "address"
        }
      ],
      "name": "balanceOf",
      "outputs": [
        {
          "internalType": "uint256",
          "name": "",
          "type": "uint256"
        }
      ],
      "stateMutability": "view",
      "type": "function"
    },
    {
      "inputs": [],
      "name": "debugMode",
      "outputs": [
        {
          "internalType": "bool",
          "name": "",
          "type": "bool"
        }
      ],
      "stateMutability": "view",
      "type": "function"
    },
    {
      "inputs": [
        {
          "internalType": "uint256",
          "name": "tokenId",
          "type": "uint256"
        }
      ],
      "name": "getApproved",
      "outputs": [
        {
          "internalType": "address",
          "name": "",
          "type": "address"
        }
      ],
      "stateMutability": "view",
      "type": "function"
    },
    {
      "inputs": [
        {
          "internalType": "address",
          "name": "owner",
          "type": "address"
        },
        {
          "internalType": "address",
          "name": "operator",
          "type": "address"
        }
      ],
      "name": "isApprovedForAll",
      "outputs": [
        {
          "internalType": "bool",
          "name": "",
          "type": "bool"
        }
      ],
      "stateMutability": "view",
      "type": "function"
    },
    {
      "inputs": [],
      "name": "maxPurchaseSize",
      "outputs": [
        {
          "internalType": "uint256",
          "name": "",
          "type": "uint256"
        }
      ],
      "stateMutability": "view",
      "type": "function"
    },
    {
      "inputs": [],
      "name": "name",
      "outputs": [
        {
          "internalType": "string",
          "name": "",
          "type": "string"
        }
      ],
      "stateMutability": "view",
      "type": "function"
    },
    {
      "inputs": [],
      "name": "owner",
      "outputs": [
        {
          "internalType": "address",
          "name": "",
          "type": "address"
        }
      ],
      "stateMutability": "view",
      "type": "function"
    },
    {
      "inputs": [
        {
          "internalType": "uint256",
          "name": "tokenId",
          "type": "uint256"
        }
      ],
      "name": "ownerOf",
      "outputs": [
        {
          "internalType": "address",
          "name": "",
          "type": "address"
        }
      ],
      "stateMutability": "view",
      "type": "function"
    },
    {
      "inputs": [],
      "name": "paused",
      "outputs": [
        {
          "internalType": "bool",
          "name": "",
          "type": "bool"
        }
      ],
      "stateMutability": "view",
      "type": "function"
    },
    {
      "inputs": [],
      "name": "price",
      "outputs": [
        {
          "internalType": "uint256",
          "name": "",
          "type": "uint256"
        }
      ],
      "stateMutability": "view",
      "type": "function"
    },
    {
      "inputs": [],
      "name": "renounceOwnership",
      "outputs": [],
      "stateMutability": "nonpayable",
      "type": "function"
    },
    {
      "inputs": [],
      "name": "revealed",
      "outputs": [
        {
          "internalType": "bool",
          "name": "",
          "type": "bool"
        }
      ],
      "stateMutability": "view",
      "type": "function"
    },
    {
      "inputs": [
        {
          "internalType": "address",
          "name": "from",
          "type": "address"
        },
        {
          "internalType": "address",
          "name": "to",
          "type": "address"
        },
        {
          "internalType": "uint256",
          "name": "tokenId",
          "type": "uint256"
        }
      ],
      "name": "safeTransferFrom",
      "outputs": [],
      "stateMutability": "nonpayable",
      "type": "function"
    },
    {
      "inputs": [
        {
          "internalType": "address",
          "name": "from",
          "type": "address"
        },
        {
          "internalType": "address",
          "name": "to",
          "type": "address"
        },
        {
          "internalType": "uint256",
          "name": "tokenId",
          "type": "uint256"
        },
        {
          "internalType": "bytes",
          "name": "_data",
          "type": "bytes"
        }
      ],
      "name": "safeTransferFrom",
      "outputs": [],
      "stateMutability": "nonpayable",
      "type": "function"
    },
    {
      "inputs": [
        {
          "internalType": "address",
          "name": "operator",
          "type": "address"
        },
        {
          "internalType": "bool",
          "name": "approved",
          "type": "bool"
        }
      ],
      "name": "setApprovalForAll",
      "outputs": [],
      "stateMutability": "nonpayable",
      "type": "function"
    },
    {
      "inputs": [
        {
          "internalType": "bytes4",
          "name": "interfaceId",
          "type": "bytes4"
        }
      ],
      "name": "supportsInterface",
      "outputs": [
        {
          "internalType": "bool",
          "name": "",
          "type": "bool"
        }
      ],
      "stateMutability": "view",
      "type": "function"
    },
    {
      "inputs": [],
      "name": "symbol",
      "outputs": [
        {
          "internalType": "string",
          "name": "",
          "type": "string"
        }
      ],
      "stateMutability": "view",
      "type": "function"
    },
    {
      "inputs": [
        {
          "internalType": "uint256",
          "name": "index",
          "type": "uint256"
        }
      ],
      "name": "tokenByIndex",
      "outputs": [
        {
          "internalType": "uint256",
          "name": "",
          "type": "uint256"
        }
      ],
      "stateMutability": "view",
      "type": "function"
    },
    {
      "inputs": [
        {
          "internalType": "address",
          "name": "owner",
          "type": "address"
        },
        {
          "internalType": "uint256",
          "name": "index",
          "type": "uint256"
        }
      ],
      "name": "tokenOfOwnerByIndex",
      "outputs": [
        {
          "internalType": "uint256",
          "name": "",
          "type": "uint256"
        }
      ],
      "stateMutability": "view",
      "type": "function"
    },
    {
      "inputs": [
        {
          "internalType": "uint256",
          "name": "tokenId",
          "type": "uint256"
        }
      ],
      "name": "tokenURI",
      "outputs": [
        {
          "internalType": "string",
          "name": "",
          "type": "string"
        }
      ],
      "stateMutability": "view",
      "type": "function"
    },
    {
      "inputs": [],
      "name": "totalSupply",
      "outputs": [
        {
          "internalType": "uint256",
          "name": "",
          "type": "uint256"
        }
      ],
      "stateMutability": "view",
      "type": "function"
    },
    {
      "inputs": [
        {
          "internalType": "address",
          "name": "from",
          "type": "address"
        },
        {
          "internalType": "address",
          "name": "to",
          "type": "address"
        },
        {
          "internalType": "uint256",
          "name": "tokenId",
          "type": "uint256"
        }
      ],
      "name": "transferFrom",
      "outputs": [],
      "stateMutability": "nonpayable",
      "type": "function"
    },
    {
      "inputs": [
        {
          "internalType": "address",
          "name": "newOwner",
          "type": "address"
        }
      ],
      "name": "transferOwnership",
      "outputs": [],
      "stateMutability": "nonpayable",
      "type": "function"
    },
    {
      "inputs": [
        {
          "internalType": "uint256",
          "name": "_count",
          "type": "uint256"
        }
      ],
      "name": "mintBB",
      "outputs": [],
      "stateMutability": "payable",
      "type": "function"
    },
    {
      "inputs": [
        {
          "internalType": "string",
          "name": "baseURI",
          "type": "string"
        }
      ],
      "name": "setBaseURI",
      "outputs": [],
      "stateMutability": "nonpayable",
      "type": "function"
    },
    {
      "inputs": [],
      "name": "contractURI",
      "outputs": [
        {
          "internalType": "string",
          "name": "",
          "type": "string"
        }
      ],
      "stateMutability": "pure",
      "type": "function"
    },
    {
      "inputs": [
        {
          "internalType": "bool",
          "name": "val",
          "type": "bool"
        }
      ],
      "name": "pause",
      "outputs": [],
      "stateMutability": "nonpayable",
      "type": "function"
    },
    {
      "inputs": [
        {
          "internalType": "string",
          "name": "baseURI",
          "type": "string"
        }
      ],
      "name": "reveal",
      "outputs": [],
      "stateMutability": "nonpayable",
      "type": "function"
    },
    {
      "inputs": [],
      "name": "unreveal",
      "outputs": [],
      "stateMutability": "nonpayable",
      "type": "function"
    },
    {
      "inputs": [
        {
          "internalType": "address",
          "name": "_owner",
          "type": "address"
        }
      ],
      "name": "walletOfOwner",
      "outputs": [
        {
          "internalType": "uint256[]",
          "name": "",
          "type": "uint256[]"
        }
      ],
      "stateMutability": "view",
      "type": "function"
    }
  ],
  "bytecode": "0x6080604052612b67600b556000600d60006101000a81548160ff0219169083151502179055506000600d60016101000a81548160ff0219169083151502179055506000600d60026101000a81548160ff0219169083151502179055503480156200006857600080fd5b5060405162004b9238038062004b9283398181016040528101906200008e9190620004d5565b6040518060400160405280600a81526020017f426f78696e67426f797a000000000000000000000000000000000000000000008152506040518060400160405280600a81526020017f424f58494e47424f595a000000000000000000000000000000000000000000008152508160009080519060200190620001129291906200036e565b5080600190805190602001906200012b9291906200036e565b5050506200014e62000142620001cb60201b60201c565b620001d360201b60201c565b6200015f846200029960201b60201c565b82600d60036101000a81548173ffffffffffffffffffffffffffffffffffffffff021916908373ffffffffffffffffffffffffffffffffffffffff16021790555081600b8190555080600d60026101000a81548160ff0219169083151502179055505050505062000798565b600033905090565b6000600a60009054906101000a900473ffffffffffffffffffffffffffffffffffffffff16905081600a60006101000a81548173ffffffffffffffffffffffffffffffffffffffff021916908373ffffffffffffffffffffffffffffffffffffffff1602179055508173ffffffffffffffffffffffffffffffffffffffff168173ffffffffffffffffffffffffffffffffffffffff167f8be0079c531659141344cd1fd0a4f28419497f9722a3daafe3b4186f6b6457e060405160405180910390a35050565b620002a9620001cb60201b60201c565b73ffffffffffffffffffffffffffffffffffffffff16620002cf6200034460201b60201c565b73ffffffffffffffffffffffffffffffffffffffff161462000328576040517f08c379a00000000000000000000000000000000000000000000000000000000081526004016200031f906200059c565b60405180910390fd5b80600c9080519060200190620003409291906200036e565b5050565b6000600a60009054906101000a900473ffffffffffffffffffffffffffffffffffffffff16905090565b8280546200037c90620006b6565b90600052602060002090601f016020900481019282620003a05760008555620003ec565b82601f10620003bb57805160ff1916838001178555620003ec565b82800160010185558215620003ec579182015b82811115620003eb578251825591602001919060010190620003ce565b5b509050620003fb9190620003ff565b5090565b5b808211156200041a57600081600090555060010162000400565b5090565b6000620004356200042f84620005f2565b620005be565b9050828152602081018484840111156200044e57600080fd5b6200045b84828562000680565b509392505050565b60008151905062000474816200074a565b92915050565b6000815190506200048b8162000764565b92915050565b600082601f830112620004a357600080fd5b8151620004b58482602086016200041e565b91505092915050565b600081519050620004cf816200077e565b92915050565b60008060008060808587031215620004ec57600080fd5b600085015167ffffffffffffffff8111156200050757600080fd5b620005158782880162000491565b9450506020620005288782880162000463565b93505060406200053b87828801620004be565b92505060606200054e878288016200047a565b91505092959194509250565b60006200056960208362000625565b91507f4f776e61626c653a2063616c6c6572206973206e6f7420746865206f776e65726000830152602082019050919050565b60006020820190508181036000830152620005b7816200055a565b9050919050565b6000604051905081810181811067ffffffffffffffff82111715620005e857620005e76200071b565b5b8060405250919050565b600067ffffffffffffffff82111562000610576200060f6200071b565b5b601f19601f8301169050602081019050919050565b600082825260208201905092915050565b6000620006438262000656565b9050919050565b60008115159050919050565b600073ffffffffffffffffffffffffffffffffffffffff82169050919050565b6000819050919050565b60005b83811015620006a057808201518184015260208101905062000683565b83811115620006b0576000848401525b50505050565b60006002820490506001821680620006cf57607f821691505b60208210811415620006e657620006e5620006ec565b5b50919050565b7f4e487b7100000000000000000000000000000000000000000000000000000000600052602260045260246000fd5b7f4e487b7100000000000000000000000000000000000000000000000000000000600052604160045260246000fd5b620007558162000636565b81146200076157600080fd5b50565b6200076f816200064a565b81146200077b57600080fd5b50565b620007898162000676565b81146200079557600080fd5b50565b6143ea80620007a86000396000f3fe6080604052600436106101e35760003560e01c806355f804b311610102578063a035b1fe11610095578063e77df06811610064578063e77df068146106f4578063e8a3d48514610710578063e985e9c51461073b578063f2fde38b14610778576101e3565b8063a035b1fe1461063a578063a22cb46514610665578063b88d4fde1461068e578063c87b56dd146106b7576101e3565b806370a08231116100d157806370a0823114610590578063715018a6146105cd5780638da5cb5b146105e457806395d89b411461060f576101e3565b806355f804b3146104d4578063564b28a0146104fd5780635c975abb146105285780636352211e14610553576101e3565b80631c9568be1161017a578063438b630011610149578063438b6300146104065780634c261247146104435780634f6ccce71461046c57806351830227146104a9576101e3565b80631c9568be1461034c57806323b872dd146103775780632f745c59146103a057806342842e0e146103dd576101e3565b8063081812fc116101b6578063081812fc146102a4578063095ea7b3146102e1578063158756b91461030a57806318160ddd14610321576101e3565b806301ffc9a7146101e857806302329a291461022557806306fdde031461024e578063076736a214610279575b600080fd5b3480156101f457600080fd5b5061020f600480360381019061020a9190612fa6565b6107a1565b60405161021c9190613b44565b60405180910390f35b34801561023157600080fd5b5061024c60048036038101906102479190612f7d565b61081b565b005b34801561025a57600080fd5b506102636108b4565b6040516102709190613b5f565b60405180910390f35b34801561028557600080fd5b5061028e610946565b60405161029b9190613ec1565b60405180910390f35b3480156102b057600080fd5b506102cb60048036038101906102c69190613039565b61094b565b6040516102d89190613abb565b60405180910390f35b3480156102ed57600080fd5b5061030860048036038101906103039190612f41565b6109d0565b005b34801561031657600080fd5b5061031f610ae8565b005b34801561032d57600080fd5b50610336610bd0565b6040516103439190613ec1565b60405180910390f35b34801561035857600080fd5b50610361610bdd565b60405161036e9190613b44565b60405180910390f35b34801561038357600080fd5b5061039e60048036038101906103999190612e3b565b610bf0565b005b3480156103ac57600080fd5b506103c760048036038101906103c29190612f41565b610c50565b6040516103d49190613ec1565b60405180910390f35b3480156103e957600080fd5b5061040460048036038101906103ff9190612e3b565b610cf5565b005b34801561041257600080fd5b5061042d60048036038101906104289190612dd6565b610d15565b60405161043a9190613b22565b60405180910390f35b34801561044f57600080fd5b5061046a60048036038101906104659190612ff8565b610e0f565b005b34801561047857600080fd5b50610493600480360381019061048e9190613039565b610f02565b6040516104a09190613ec1565b60405180910390f35b3480156104b557600080fd5b506104be610f99565b6040516104cb9190613b44565b60405180910390f35b3480156104e057600080fd5b506104fb60048036038101906104f69190612ff8565b610fac565b005b34801561050957600080fd5b50610512611042565b60405161051f9190613ec1565b60405180910390f35b34801561053457600080fd5b5061053d611048565b60405161054a9190613b44565b60405180910390f35b34801561055f57600080fd5b5061057a60048036038101906105759190613039565b61105b565b6040516105879190613abb565b60405180910390f35b34801561059c57600080fd5b506105b760048036038101906105b29190612dd6565b61110d565b6040516105c49190613ec1565b60405180910390f35b3480156105d957600080fd5b506105e26111c5565b005b3480156105f057600080fd5b506105f961124d565b6040516106069190613abb565b60405180910390f35b34801561061b57600080fd5b50610624611277565b6040516106319190613b5f565b60405180910390f35b34801561064657600080fd5b5061064f611309565b60405161065c9190613ec1565b60405180910390f35b34801561067157600080fd5b5061068c60048036038101906106879190612f05565b611315565b005b34801561069a57600080fd5b506106b560048036038101906106b09190612e8a565b611496565b005b3480156106c357600080fd5b506106de60048036038101906106d99190613039565b6114f8565b6040516106eb9190613b5f565b60405180910390f35b61070e60048036038101906107099190613039565b61159f565b005b34801561071c57600080fd5b506107256118a2565b6040516107329190613b5f565b60405180910390f35b34801561074757600080fd5b50610762600480360381019061075d9190612dff565b6118c2565b60405161076f9190613b44565b60405180910390f35b34801561078457600080fd5b5061079f600480360381019061079a9190612dd6565b611956565b005b60007f780e9d63000000000000000000000000000000000000000000000000000000007bffffffffffffffffffffffffffffffffffffffffffffffffffffffff1916827bffffffffffffffffffffffffffffffffffffffffffffffffffffffff19161480610814575061081382611a4e565b5b9050919050565b610823611b30565b73ffffffffffffffffffffffffffffffffffffffff1661084161124d565b73ffffffffffffffffffffffffffffffffffffffff1614610897576040517f08c379a000000000000000000000000000000000000000000000000000000000815260040161088e90613d61565b60405180910390fd5b80600d60006101000a81548160ff02191690831515021790555050565b6060600080546108c3906141b4565b80601f01602080910402602001604051908101604052809291908181526020018280546108ef906141b4565b801561093c5780601f106109115761010080835404028352916020019161093c565b820191906000526020600020905b81548152906001019060200180831161091f57829003601f168201915b5050505050905090565b601481565b600061095682611b38565b610995576040517f08c379a000000000000000000000000000000000000000000000000000000000815260040161098c90613d41565b60405180910390fd5b6004600083815260200190815260200160002060009054906101000a900473ffffffffffffffffffffffffffffffffffffffff169050919050565b60006109db8261105b565b90508073ffffffffffffffffffffffffffffffffffffffff168373ffffffffffffffffffffffffffffffffffffffff161415610a4c576040517f08c379a0000000000000000000000000000000000000000000000000000000008152600401610a4390613e21565b60405180910390fd5b8073ffffffffffffffffffffffffffffffffffffffff16610a6b611b30565b73ffffffffffffffffffffffffffffffffffffffff161480610a9a5750610a9981610a94611b30565b6118c2565b5b610ad9576040517f08c379a0000000000000000000000000000000000000000000000000000000008152600401610ad090613cc1565b60405180910390fd5b610ae38383611ba4565b505050565b610af0611b30565b73ffffffffffffffffffffffffffffffffffffffff16610b0e61124d565b73ffffffffffffffffffffffffffffffffffffffff1614610b64576040517f08c379a0000000000000000000000000000000000000000000000000000000008152600401610b5b90613d61565b60405180910390fd5b600d60029054906101000a900460ff16610bb3576040517f08c379a0000000000000000000000000000000000000000000000000000000008152600401610baa90613b81565b60405180910390fd5b6000600d60016101000a81548160ff021916908315150217905550565b6000600880549050905090565b600d60029054906101000a900460ff1681565b610c01610bfb611b30565b82611c5d565b610c40576040517f08c379a0000000000000000000000000000000000000000000000000000000008152600401610c3790613e61565b60405180910390fd5b610c4b838383611d3b565b505050565b6000610c5b8361110d565b8210610c9c576040517f08c379a0000000000000000000000000000000000000000000000000000000008152600401610c9390613ba1565b60405180910390fd5b600660008473ffffffffffffffffffffffffffffffffffffffff1673ffffffffffffffffffffffffffffffffffffffff168152602001908152602001600020600083815260200190815260200160002054905092915050565b610d1083838360405180602001604052806000815250611496565b505050565b60606000610d228361110d565b905060008167ffffffffffffffff811115610d66577f4e487b7100000000000000000000000000000000000000000000000000000000600052604160045260246000fd5b604051908082528060200260200182016040528015610d945781602001602082028036833780820191505090505b50905060005b82811015610e0457610dac8582610c50565b828281518110610de5577f4e487b7100000000000000000000000000000000000000000000000000000000600052603260045260246000fd5b6020026020010181815250508080610dfc906141e6565b915050610d9a565b508092505050919050565b610e17611b30565b73ffffffffffffffffffffffffffffffffffffffff16610e3561124d565b73ffffffffffffffffffffffffffffffffffffffff1614610e8b576040517f08c379a0000000000000000000000000000000000000000000000000000000008152600401610e8290613d61565b60405180910390fd5b600d60019054906101000a900460ff1615610edb576040517f08c379a0000000000000000000000000000000000000000000000000000000008152600401610ed290613ea1565b60405180910390fd5b610ee481610fac565b6001600d60016101000a81548160ff02191690831515021790555050565b6000610f0c610bd0565b8210610f4d576040517f08c379a0000000000000000000000000000000000000000000000000000000008152600401610f4490613e81565b60405180910390fd5b60088281548110610f87577f4e487b7100000000000000000000000000000000000000000000000000000000600052603260045260246000fd5b90600052602060002001549050919050565b600d60019054906101000a900460ff1681565b610fb4611b30565b73ffffffffffffffffffffffffffffffffffffffff16610fd261124d565b73ffffffffffffffffffffffffffffffffffffffff1614611028576040517f08c379a000000000000000000000000000000000000000000000000000000000815260040161101f90613d61565b60405180910390fd5b80600c908051906020019061103e929190612bfa565b5050565b600b5481565b600d60009054906101000a900460ff1681565b6000806002600084815260200190815260200160002060009054906101000a900473ffffffffffffffffffffffffffffffffffffffff169050600073ffffffffffffffffffffffffffffffffffffffff168173ffffffffffffffffffffffffffffffffffffffff161415611104576040517f08c379a00000000000000000000000000000000000000000000000000000000081526004016110fb90613d01565b60405180910390fd5b80915050919050565b60008073ffffffffffffffffffffffffffffffffffffffff168273ffffffffffffffffffffffffffffffffffffffff16141561117e576040517f08c379a000000000000000000000000000000000000000000000000000000000815260040161117590613ce1565b60405180910390fd5b600360008373ffffffffffffffffffffffffffffffffffffffff1673ffffffffffffffffffffffffffffffffffffffff168152602001908152602001600020549050919050565b6111cd611b30565b73ffffffffffffffffffffffffffffffffffffffff166111eb61124d565b73ffffffffffffffffffffffffffffffffffffffff1614611241576040517f08c379a000000000000000000000000000000000000000000000000000000000815260040161123890613d61565b60405180910390fd5b61124b6000611f97565b565b6000600a60009054906101000a900473ffffffffffffffffffffffffffffffffffffffff16905090565b606060018054611286906141b4565b80601f01602080910402602001604051908101604052809291908181526020018280546112b2906141b4565b80156112ff5780601f106112d4576101008083540402835291602001916112ff565b820191906000526020600020905b8154815290600101906020018083116112e257829003601f168201915b5050505050905090565b67016345785d8a000081565b61131d611b30565b73ffffffffffffffffffffffffffffffffffffffff168273ffffffffffffffffffffffffffffffffffffffff16141561138b576040517f08c379a000000000000000000000000000000000000000000000000000000000815260040161138290613c81565b60405180910390fd5b8060056000611398611b30565b73ffffffffffffffffffffffffffffffffffffffff1673ffffffffffffffffffffffffffffffffffffffff16815260200190815260200160002060008473ffffffffffffffffffffffffffffffffffffffff1673ffffffffffffffffffffffffffffffffffffffff16815260200190815260200160002060006101000a81548160ff0219169083151502179055508173ffffffffffffffffffffffffffffffffffffffff16611445611b30565b73ffffffffffffffffffffffffffffffffffffffff167f17307eab39ab6107e8899845ad3d59bd9653f200f220920489ca2b5937696c318360405161148a9190613b44565b60405180910390a35050565b6114a76114a1611b30565b83611c5d565b6114e6576040517f08c379a00000000000000000000000000000000000000000000000000000000081526004016114dd90613e61565b60405180910390fd5b6114f28484848461205d565b50505050565b606061150382611b38565b611542576040517f08c379a000000000000000000000000000000000000000000000000000000000815260040161153990613da1565b60405180910390fd5b600061154c6120b9565b9050600081511161156c5760405180602001604052806000815250611597565b806115768461214b565b604051602001611587929190613a97565b6040516020818303038152906040525b915050919050565b600b546115aa610bd0565b106115ea576040517f08c379a00000000000000000000000000000000000000000000000000000000081526004016115e190613c21565b60405180910390fd5b6115f261124d565b73ffffffffffffffffffffffffffffffffffffffff163373ffffffffffffffffffffffffffffffffffffffff161461167557600d60009054906101000a900460ff1615611674576040517f08c379a000000000000000000000000000000000000000000000000000000000815260040161166b90613dc1565b60405180910390fd5b5b600d60019054906101000a900460ff16156116c5576040517f08c379a00000000000000000000000000000000000000000000000000000000081526004016116bc90613ea1565b60405180910390fd5b60008111611708576040517f08c379a00000000000000000000000000000000000000000000000000000000081526004016116ff90613e41565b60405180910390fd5b601481111561174c576040517f08c379a000000000000000000000000000000000000000000000000000000000815260040161174390613c41565b60405180910390fd5b600b5481611758610bd0565b6117629190613fe9565b11156117a3576040517f08c379a000000000000000000000000000000000000000000000000000000000815260040161179a90613e01565b60405180910390fd5b60006117c08267016345785d8a00006122f890919063ffffffff16565b905080341015611805576040517f08c379a00000000000000000000000000000000000000000000000000000000081526004016117fc90613de1565b60405180910390fd5b60005b82811015611834576118213361181c610bd0565b61230e565b808061182c906141e6565b915050611808565b50600d60039054906101000a900473ffffffffffffffffffffffffffffffffffffffff1673ffffffffffffffffffffffffffffffffffffffff166108fc829081150290604051600060405180830381858888f1935050505015801561189d573d6000803e3d6000fd5b505050565b60606040518060600160405280602b815260200161438a602b9139905090565b6000600560008473ffffffffffffffffffffffffffffffffffffffff1673ffffffffffffffffffffffffffffffffffffffff16815260200190815260200160002060008373ffffffffffffffffffffffffffffffffffffffff1673ffffffffffffffffffffffffffffffffffffffff16815260200190815260200160002060009054906101000a900460ff16905092915050565b61195e611b30565b73ffffffffffffffffffffffffffffffffffffffff1661197c61124d565b73ffffffffffffffffffffffffffffffffffffffff16146119d2576040517f08c379a00000000000000000000000000000000000000000000000000000000081526004016119c990613d61565b60405180910390fd5b600073ffffffffffffffffffffffffffffffffffffffff168173ffffffffffffffffffffffffffffffffffffffff161415611a42576040517f08c379a0000000000000000000000000000000000000000000000000000000008152600401611a3990613be1565b60405180910390fd5b611a4b81611f97565b50565b60007f80ac58cd000000000000000000000000000000000000000000000000000000007bffffffffffffffffffffffffffffffffffffffffffffffffffffffff1916827bffffffffffffffffffffffffffffffffffffffffffffffffffffffff19161480611b1957507f5b5e139f000000000000000000000000000000000000000000000000000000007bffffffffffffffffffffffffffffffffffffffffffffffffffffffff1916827bffffffffffffffffffffffffffffffffffffffffffffffffffffffff1916145b80611b295750611b288261232c565b5b9050919050565b600033905090565b60008073ffffffffffffffffffffffffffffffffffffffff166002600084815260200190815260200160002060009054906101000a900473ffffffffffffffffffffffffffffffffffffffff1673ffffffffffffffffffffffffffffffffffffffff1614159050919050565b816004600083815260200190815260200160002060006101000a81548173ffffffffffffffffffffffffffffffffffffffff021916908373ffffffffffffffffffffffffffffffffffffffff160217905550808273ffffffffffffffffffffffffffffffffffffffff16611c178361105b565b73ffffffffffffffffffffffffffffffffffffffff167f8c5be1e5ebec7d5bd14f71427d1e84f3dd0314c0f7b2291e5b200ac8c7c3b92560405160405180910390a45050565b6000611c6882611b38565b611ca7576040517f08c379a0000000000000000000000000000000000000000000000000000000008152600401611c9e90613ca1565b60405180910390fd5b6000611cb28361105b565b90508073ffffffffffffffffffffffffffffffffffffffff168473ffffffffffffffffffffffffffffffffffffffff161480611d2157508373ffffffffffffffffffffffffffffffffffffffff16611d098461094b565b73ffffffffffffffffffffffffffffffffffffffff16145b80611d325750611d3181856118c2565b5b91505092915050565b8273ffffffffffffffffffffffffffffffffffffffff16611d5b8261105b565b73ffffffffffffffffffffffffffffffffffffffff1614611db1576040517f08c379a0000000000000000000000000000000000000000000000000000000008152600401611da890613d81565b60405180910390fd5b600073ffffffffffffffffffffffffffffffffffffffff168273ffffffffffffffffffffffffffffffffffffffff161415611e21576040517f08c379a0000000000000000000000000000000000000000000000000000000008152600401611e1890613c61565b60405180910390fd5b611e2c838383612396565b611e37600082611ba4565b6001600360008573ffffffffffffffffffffffffffffffffffffffff1673ffffffffffffffffffffffffffffffffffffffff1681526020019081526020016000206000828254611e8791906140ca565b925050819055506001600360008473ffffffffffffffffffffffffffffffffffffffff1673ffffffffffffffffffffffffffffffffffffffff1681526020019081526020016000206000828254611ede9190613fe9565b92505081905550816002600083815260200190815260200160002060006101000a81548173ffffffffffffffffffffffffffffffffffffffff021916908373ffffffffffffffffffffffffffffffffffffffff160217905550808273ffffffffffffffffffffffffffffffffffffffff168473ffffffffffffffffffffffffffffffffffffffff167fddf252ad1be2c89b69c2b068fc378daa952ba7f163c4a11628f55a4df523b3ef60405160405180910390a4505050565b6000600a60009054906101000a900473ffffffffffffffffffffffffffffffffffffffff16905081600a60006101000a81548173ffffffffffffffffffffffffffffffffffffffff021916908373ffffffffffffffffffffffffffffffffffffffff1602179055508173ffffffffffffffffffffffffffffffffffffffff168173ffffffffffffffffffffffffffffffffffffffff167f8be0079c531659141344cd1fd0a4f28419497f9722a3daafe3b4186f6b6457e060405160405180910390a35050565b612068848484611d3b565b612074848484846124aa565b6120b3576040517f08c379a00000000000000000000000000000000000000000000000000000000081526004016120aa90613bc1565b60405180910390fd5b50505050565b6060600c80546120c8906141b4565b80601f01602080910402602001604051908101604052809291908181526020018280546120f4906141b4565b80156121415780601f1061211657610100808354040283529160200191612141565b820191906000526020600020905b81548152906001019060200180831161212457829003601f168201915b5050505050905090565b60606000821415612193576040518060400160405280600181526020017f300000000000000000000000000000000000000000000000000000000000000081525090506122f3565b600082905060005b600082146121c55780806121ae906141e6565b915050600a826121be919061403f565b915061219b565b60008167ffffffffffffffff811115612207577f4e487b7100000000000000000000000000000000000000000000000000000000600052604160045260246000fd5b6040519080825280601f01601f1916602001820160405280156122395781602001600182028036833780820191505090505b5090505b600085146122ec5760018261225291906140ca565b9150600a85612261919061422f565b603061226d9190613fe9565b60f81b8183815181106122a9577f4e487b7100000000000000000000000000000000000000000000000000000000600052603260045260246000fd5b60200101907effffffffffffffffffffffffffffffffffffffffffffffffffffffffffffff1916908160001a905350600a856122e5919061403f565b945061223d565b8093505050505b919050565b600081836123069190614070565b905092915050565b612328828260405180602001604052806000815250612641565b5050565b60007f01ffc9a7000000000000000000000000000000000000000000000000000000007bffffffffffffffffffffffffffffffffffffffffffffffffffffffff1916827bffffffffffffffffffffffffffffffffffffffffffffffffffffffff1916149050919050565b6123a183838361269c565b600073ffffffffffffffffffffffffffffffffffffffff168373ffffffffffffffffffffffffffffffffffffffff1614156123e4576123df816126a1565b612423565b8173ffffffffffffffffffffffffffffffffffffffff168373ffffffffffffffffffffffffffffffffffffffff16146124225761242183826126ea565b5b5b600073ffffffffffffffffffffffffffffffffffffffff168273ffffffffffffffffffffffffffffffffffffffff1614156124665761246181612857565b6124a5565b8273ffffffffffffffffffffffffffffffffffffffff168273ffffffffffffffffffffffffffffffffffffffff16146124a4576124a3828261299a565b5b5b505050565b60006124cb8473ffffffffffffffffffffffffffffffffffffffff16612a19565b15612634578373ffffffffffffffffffffffffffffffffffffffff1663150b7a026124f4611b30565b8786866040518563ffffffff1660e01b81526004016125169493929190613ad6565b602060405180830381600087803b15801561253057600080fd5b505af192505050801561256157506040513d601f19601f8201168201806040525081019061255e9190612fcf565b60015b6125e4573d8060008114612591576040519150601f19603f3d011682016040523d82523d6000602084013e612596565b606091505b506000815114156125dc576040517f08c379a00000000000000000000000000000000000000000000000000000000081526004016125d390613bc1565b60405180910390fd5b805181602001fd5b63150b7a0260e01b7bffffffffffffffffffffffffffffffffffffffffffffffffffffffff1916817bffffffffffffffffffffffffffffffffffffffffffffffffffffffff191614915050612639565b600190505b949350505050565b61264b8383612a2c565b61265860008484846124aa565b612697576040517f08c379a000000000000000000000000000000000000000000000000000000000815260040161268e90613bc1565b60405180910390fd5b505050565b505050565b6008805490506009600083815260200190815260200160002081905550600881908060018154018082558091505060019003906000526020600020016000909190919091505550565b600060016126f78461110d565b61270191906140ca565b90506000600760008481526020019081526020016000205490508181146127e6576000600660008673ffffffffffffffffffffffffffffffffffffffff1673ffffffffffffffffffffffffffffffffffffffff168152602001908152602001600020600084815260200190815260200160002054905080600660008773ffffffffffffffffffffffffffffffffffffffff1673ffffffffffffffffffffffffffffffffffffffff168152602001908152602001600020600084815260200190815260200160002081905550816007600083815260200190815260200160002081905550505b6007600084815260200190815260200160002060009055600660008573ffffffffffffffffffffffffffffffffffffffff1673ffffffffffffffffffffffffffffffffffffffff16815260200190815260200160002060008381526020019081526020016000206000905550505050565b6000600160088054905061286b91906140ca565b90506000600960008481526020019081526020016000205490506000600883815481106128c1577f4e487b7100000000000000000000000000000000000000000000000000000000600052603260045260246000fd5b906000526020600020015490508060088381548110612909577f4e487b7100000000000000000000000000000000000000000000000000000000600052603260045260246000fd5b90600052602060002001819055508160096000838152602001908152602001600020819055506009600085815260200190815260200160002060009055600880548061297e577f4e487b7100000000000000000000000000000000000000000000000000000000600052603160045260246000fd5b6001900381819060005260206000200160009055905550505050565b60006129a58361110d565b905081600660008573ffffffffffffffffffffffffffffffffffffffff1673ffffffffffffffffffffffffffffffffffffffff168152602001908152602001600020600083815260200190815260200160002081905550806007600084815260200190815260200160002081905550505050565b600080823b905060008111915050919050565b600073ffffffffffffffffffffffffffffffffffffffff168273ffffffffffffffffffffffffffffffffffffffff161415612a9c576040517f08c379a0000000000000000000000000000000000000000000000000000000008152600401612a9390613d21565b60405180910390fd5b612aa581611b38565b15612ae5576040517f08c379a0000000000000000000000000000000000000000000000000000000008152600401612adc90613c01565b60405180910390fd5b612af160008383612396565b6001600360008473ffffffffffffffffffffffffffffffffffffffff1673ffffffffffffffffffffffffffffffffffffffff1681526020019081526020016000206000828254612b419190613fe9565b92505081905550816002600083815260200190815260200160002060006101000a81548173ffffffffffffffffffffffffffffffffffffffff021916908373ffffffffffffffffffffffffffffffffffffffff160217905550808273ffffffffffffffffffffffffffffffffffffffff16600073ffffffffffffffffffffffffffffffffffffffff167fddf252ad1be2c89b69c2b068fc378daa952ba7f163c4a11628f55a4df523b3ef60405160405180910390a45050565b828054612c06906141b4565b90600052602060002090601f016020900481019282612c285760008555612c6f565b82601f10612c4157805160ff1916838001178555612c6f565b82800160010185558215612c6f579182015b82811115612c6e578251825591602001919060010190612c53565b5b509050612c7c9190612c80565b5090565b5b80821115612c99576000816000905550600101612c81565b5090565b6000612cb0612cab84613f0d565b613edc565b905082815260208101848484011115612cc857600080fd5b612cd3848285614172565b509392505050565b6000612cee612ce984613f3d565b613edc565b905082815260208101848484011115612d0657600080fd5b612d11848285614172565b509392505050565b600081359050612d288161432d565b92915050565b600081359050612d3d81614344565b92915050565b600081359050612d528161435b565b92915050565b600081519050612d678161435b565b92915050565b600082601f830112612d7e57600080fd5b8135612d8e848260208601612c9d565b91505092915050565b600082601f830112612da857600080fd5b8135612db8848260208601612cdb565b91505092915050565b600081359050612dd081614372565b92915050565b600060208284031215612de857600080fd5b6000612df684828501612d19565b91505092915050565b60008060408385031215612e1257600080fd5b6000612e2085828601612d19565b9250506020612e3185828601612d19565b9150509250929050565b600080600060608486031215612e5057600080fd5b6000612e5e86828701612d19565b9350506020612e6f86828701612d19565b9250506040612e8086828701612dc1565b9150509250925092565b60008060008060808587031215612ea057600080fd5b6000612eae87828801612d19565b9450506020612ebf87828801612d19565b9350506040612ed087828801612dc1565b925050606085013567ffffffffffffffff811115612eed57600080fd5b612ef987828801612d6d565b91505092959194509250565b60008060408385031215612f1857600080fd5b6000612f2685828601612d19565b9250506020612f3785828601612d2e565b9150509250929050565b60008060408385031215612f5457600080fd5b6000612f6285828601612d19565b9250506020612f7385828601612dc1565b9150509250929050565b600060208284031215612f8f57600080fd5b6000612f9d84828501612d2e565b91505092915050565b600060208284031215612fb857600080fd5b6000612fc684828501612d43565b91505092915050565b600060208284031215612fe157600080fd5b6000612fef84828501612d58565b91505092915050565b60006020828403121561300a57600080fd5b600082013567ffffffffffffffff81111561302457600080fd5b61303084828501612d97565b91505092915050565b60006020828403121561304b57600080fd5b600061305984828501612dc1565b91505092915050565b600061306e8383613a79565b60208301905092915050565b613083816140fe565b82525050565b600061309482613f7d565b61309e8185613fab565b93506130a983613f6d565b8060005b838110156130da5781516130c18882613062565b97506130cc83613f9e565b9250506001810190506130ad565b5085935050505092915050565b6130f081614110565b82525050565b600061310182613f88565b61310b8185613fbc565b935061311b818560208601614181565b6131248161431c565b840191505092915050565b600061313a82613f93565b6131448185613fcd565b9350613154818560208601614181565b61315d8161431c565b840191505092915050565b600061317382613f93565b61317d8185613fde565b935061318d818560208601614181565b80840191505092915050565b60006131a6602283613fcd565b91507f596f752063616e20646f2074686973206f6e6c7920696e206465627567206d6f60008301527f64650000000000000000000000000000000000000000000000000000000000006020830152604082019050919050565b600061320c602b83613fcd565b91507f455243373231456e756d657261626c653a206f776e657220696e646578206f7560008301527f74206f6620626f756e64730000000000000000000000000000000000000000006020830152604082019050919050565b6000613272603283613fcd565b91507f4552433732313a207472616e7366657220746f206e6f6e20455243373231526560008301527f63656976657220696d706c656d656e74657200000000000000000000000000006020830152604082019050919050565b60006132d8602683613fcd565b91507f4f776e61626c653a206e6577206f776e657220697320746865207a65726f206160008301527f64647265737300000000000000000000000000000000000000000000000000006020830152604082019050919050565b600061333e601c83613fcd565b91507f4552433732313a20746f6b656e20616c7265616479206d696e746564000000006000830152602082019050919050565b600061337e600e83613fcd565b91507f53616c652068617320656e6465640000000000000000000000000000000000006000830152602082019050919050565b60006133be600983613fcd565b91507f45786365656473203100000000000000000000000000000000000000000000006000830152602082019050919050565b60006133fe602483613fcd565b91507f4552433732313a207472616e7366657220746f20746865207a65726f2061646460008301527f72657373000000000000000000000000000000000000000000000000000000006020830152604082019050919050565b6000613464601983613fcd565b91507f4552433732313a20617070726f766520746f2063616c6c6572000000000000006000830152602082019050919050565b60006134a4602c83613fcd565b91507f4552433732313a206f70657261746f7220717565727920666f72206e6f6e657860008301527f697374656e7420746f6b656e00000000000000000000000000000000000000006020830152604082019050919050565b600061350a603883613fcd565b91507f4552433732313a20617070726f76652063616c6c6572206973206e6f74206f7760008301527f6e6572206e6f7220617070726f76656420666f7220616c6c00000000000000006020830152604082019050919050565b6000613570602a83613fcd565b91507f4552433732313a2062616c616e636520717565727920666f7220746865207a6560008301527f726f2061646472657373000000000000000000000000000000000000000000006020830152604082019050919050565b60006135d6602983613fcd565b91507f4552433732313a206f776e657220717565727920666f72206e6f6e657869737460008301527f656e7420746f6b656e00000000000000000000000000000000000000000000006020830152604082019050919050565b600061363c602083613fcd565b91507f4552433732313a206d696e7420746f20746865207a65726f20616464726573736000830152602082019050919050565b600061367c602c83613fcd565b91507f4552433732313a20617070726f76656420717565727920666f72206e6f6e657860008301527f697374656e7420746f6b656e00000000000000000000000000000000000000006020830152604082019050919050565b60006136e2602083613fcd565b91507f4f776e61626c653a2063616c6c6572206973206e6f7420746865206f776e65726000830152602082019050919050565b6000613722602983613fcd565b91507f4552433732313a207472616e73666572206f6620746f6b656e2074686174206960008301527f73206e6f74206f776e00000000000000000000000000000000000000000000006020830152604082019050919050565b6000613788602f83613fcd565b91507f4552433732314d657461646174613a2055524920717565727920666f72206e6f60008301527f6e6578697374656e7420746f6b656e00000000000000000000000000000000006020830152604082019050919050565b60006137ee601883613fcd565b91507f4d696e74696e6720686173206265656e642070617573656400000000000000006000830152602082019050919050565b600061382e601183613fcd565b91507f56616c75652062656c6f772070726963650000000000000000000000000000006000830152602082019050919050565b600061386e601583613fcd565b91507f4e6f7420656e6f75676820746f6b656e206c65667400000000000000000000006000830152602082019050919050565b60006138ae602183613fcd565b91507f4552433732313a20617070726f76616c20746f2063757272656e74206f776e6560008301527f72000000000000000000000000000000000000000000000000000000000000006020830152604082019050919050565b6000613914601b83613fcd565b91507f596f752063616e2774206d696e74203020426f78696e67426f797a00000000006000830152602082019050919050565b6000613954603183613fcd565b91507f4552433732313a207472616e736665722063616c6c6572206973206e6f74206f60008301527f776e6572206e6f7220617070726f7665640000000000000000000000000000006020830152604082019050919050565b60006139ba602c83613fcd565b91507f455243373231456e756d657261626c653a20676c6f62616c20696e646578206f60008301527f7574206f6620626f756e647300000000000000000000000000000000000000006020830152604082019050919050565b6000613a20602283613fcd565b91507f596f752063616e277420646f207468697320616674657220746865207265766560008301527f616c0000000000000000000000000000000000000000000000000000000000006020830152604082019050919050565b613a8281614168565b82525050565b613a9181614168565b82525050565b6000613aa38285613168565b9150613aaf8284613168565b91508190509392505050565b6000602082019050613ad0600083018461307a565b92915050565b6000608082019050613aeb600083018761307a565b613af8602083018661307a565b613b056040830185613a88565b8181036060830152613b1781846130f6565b905095945050505050565b60006020820190508181036000830152613b3c8184613089565b905092915050565b6000602082019050613b5960008301846130e7565b92915050565b60006020820190508181036000830152613b79818461312f565b905092915050565b60006020820190508181036000830152613b9a81613199565b9050919050565b60006020820190508181036000830152613bba816131ff565b9050919050565b60006020820190508181036000830152613bda81613265565b9050919050565b60006020820190508181036000830152613bfa816132cb565b9050919050565b60006020820190508181036000830152613c1a81613331565b9050919050565b60006020820190508181036000830152613c3a81613371565b9050919050565b60006020820190508181036000830152613c5a816133b1565b9050919050565b60006020820190508181036000830152613c7a816133f1565b9050919050565b60006020820190508181036000830152613c9a81613457565b9050919050565b60006020820190508181036000830152613cba81613497565b9050919050565b60006020820190508181036000830152613cda816134fd565b9050919050565b60006020820190508181036000830152613cfa81613563565b9050919050565b60006020820190508181036000830152613d1a816135c9565b9050919050565b60006020820190508181036000830152613d3a8161362f565b9050919050565b60006020820190508181036000830152613d5a8161366f565b9050919050565b60006020820190508181036000830152613d7a816136d5565b9050919050565b60006020820190508181036000830152613d9a81613715565b9050919050565b60006020820190508181036000830152613dba8161377b565b9050919050565b60006020820190508181036000830152613dda816137e1565b9050919050565b60006020820190508181036000830152613dfa81613821565b9050919050565b60006020820190508181036000830152613e1a81613861565b9050919050565b60006020820190508181036000830152613e3a816138a1565b9050919050565b60006020820190508181036000830152613e5a81613907565b9050919050565b60006020820190508181036000830152613e7a81613947565b9050919050565b60006020820190508181036000830152613e9a816139ad565b9050919050565b60006020820190508181036000830152613eba81613a13565b9050919050565b6000602082019050613ed66000830184613a88565b92915050565b6000604051905081810181811067ffffffffffffffff82111715613f0357613f026142ed565b5b8060405250919050565b600067ffffffffffffffff821115613f2857613f276142ed565b5b601f19601f8301169050602081019050919050565b600067ffffffffffffffff821115613f5857613f576142ed565b5b601f19601f8301169050602081019050919050565b6000819050602082019050919050565b600081519050919050565b600081519050919050565b600081519050919050565b6000602082019050919050565b600082825260208201905092915050565b600082825260208201905092915050565b600082825260208201905092915050565b600081905092915050565b6000613ff482614168565b9150613fff83614168565b9250827fffffffffffffffffffffffffffffffffffffffffffffffffffffffffffffffff0382111561403457614033614260565b5b828201905092915050565b600061404a82614168565b915061405583614168565b9250826140655761406461428f565b5b828204905092915050565b600061407b82614168565b915061408683614168565b9250817fffffffffffffffffffffffffffffffffffffffffffffffffffffffffffffffff04831182151516156140bf576140be614260565b5b828202905092915050565b60006140d582614168565b91506140e083614168565b9250828210156140f3576140f2614260565b5b828203905092915050565b600061410982614148565b9050919050565b60008115159050919050565b60007fffffffff0000000000000000000000000000000000000000000000000000000082169050919050565b600073ffffffffffffffffffffffffffffffffffffffff82169050919050565b6000819050919050565b82818337600083830152505050565b60005b8381101561419f578082015181840152602081019050614184565b838111156141ae576000848401525b50505050565b600060028204905060018216806141cc57607f821691505b602082108114156141e0576141df6142be565b5b50919050565b60006141f182614168565b91507fffffffffffffffffffffffffffffffffffffffffffffffffffffffffffffffff82141561422457614223614260565b5b600182019050919050565b600061423a82614168565b915061424583614168565b9250826142555761425461428f565b5b828206905092915050565b7f4e487b7100000000000000000000000000000000000000000000000000000000600052601160045260246000fd5b7f4e487b7100000000000000000000000000000000000000000000000000000000600052601260045260246000fd5b7f4e487b7100000000000000000000000000000000000000000000000000000000600052602260045260246000fd5b7f4e487b7100000000000000000000000000000000000000000000000000000000600052604160045260246000fd5b6000601f19601f8301169050919050565b614336816140fe565b811461434157600080fd5b50565b61434d81614110565b811461435857600080fd5b50565b6143648161411c565b811461436f57600080fd5b50565b61437b81614168565b811461438657600080fd5b5056fe68747470733a2f2f7777772e686f646c68656164732e696f2f636f6e74726163742d696e666f2e6a736f6ea26469706673582212203a85e3db3865d90b127a5b952621cef74823ac84bc88fa3255edf6870e6183ff64736f6c63430008000033",
  "immutableReferences": {},
  "source": "// SPDX-License-Identifier: MIT\r\npragma solidity ^0.8.0;\r\n\r\nimport \"@openzeppelin/contracts/token/ERC721/extensions/ERC721Enumerable.sol\";\r\nimport \"@openzeppelin/contracts/access/Ownable.sol\";\r\nimport \"@openzeppelin/contracts/utils/math/SafeMath.sol\";\r\nimport \"@openzeppelin/contracts/utils/Strings.sol\";\r\n\r\ncontract HODLHeads is ERC721Enumerable, Ownable {\r\n    using SafeMath for uint256;\r\n    using Strings for uint256;\r\n\r\n    uint public availableToken = 11111;\r\n    uint256 public constant price = 0.1 ether;\r\n    uint public constant maxPurchaseSize = 20;\r\n\r\n    string _baseTokenURI;\r\n    bool public paused = false;\r\n    bool public revealed = false;\r\n    bool public debugMode = false;\r\n    address contractOwner;\r\n\r\n    constructor(string memory theBaseURI, address owner, uint numToken, bool debug) ERC721(\"BoxingBoyz\", \"BOXINGBOYZ\")  {\r\n        setBaseURI(theBaseURI);\r\n        contractOwner = owner;\r\n        availableToken = numToken;\r\n        debugMode = debug;\r\n    }\r\n\r\n    modifier saleIsOpen {\r\n        require(totalSupply() < availableToken, \"Sale has ended\");\r\n        _;\r\n    }\r\n\r\n    modifier notPaused {\r\n        if(msg.sender != owner()){\r\n            require(!paused, \"Minting has beend paused\");\r\n        }\r\n        _;\r\n    }\r\n\r\n    modifier notRevealed {\r\n        require(!revealed, \"You can't do this after the reveal\");\r\n        _;\r\n    }\r\n\r\n    modifier onlyInDebugMode {\r\n        require(debugMode, \"You can do this only in debug mode\");\r\n        _;\r\n    }\r\n\r\n    function mintBB(uint _count) public payable saleIsOpen notPaused notRevealed {\r\n        require(_count > 0, \"You can't mint 0 BoxingBoyz\");\r\n        require(_count <= maxPurchaseSize, \"Exceeds 1\");\r\n        require(totalSupply() + _count <= availableToken, \"Not enough token left\");\r\n\r\n        uint256 orderPrice = price.mul(_count);\r\n        require(msg.value >= orderPrice, \"Value below price\");\r\n\r\n        for(uint i = 0; i < _count; i++){\r\n            _safeMint(msg.sender, totalSupply()); //Enumerable\r\n        }\r\n\r\n        payable(contractOwner).transfer(orderPrice);\r\n    }\r\n\r\n    function setBaseURI(string memory baseURI) public onlyOwner {\r\n        _baseTokenURI = baseURI;\r\n    }\r\n\r\n    function _baseURI() internal view virtual override returns (string memory) {\r\n        return _baseTokenURI;\r\n    }\r\n\r\n    function contractURI() public pure returns (string memory) {\r\n        return \"https://www.hodlheads.io/contract-info.json\";\r\n    }\r\n\r\n    function pause(bool val) public onlyOwner {\r\n        paused = val;\r\n    }\r\n\r\n    function reveal(string memory baseURI) public onlyOwner notRevealed {\r\n        setBaseURI(baseURI);\r\n        revealed = true;\r\n    }\r\n\r\n    function unreveal() public onlyOwner onlyInDebugMode {\r\n        revealed = false;\r\n    }\r\n\r\n    function walletOfOwner(address _owner) external view returns(uint256[] memory) {\r\n        uint tokenCount = balanceOf(_owner);\r\n\r\n        uint256[] memory tokensId = new uint256[](tokenCount);\r\n        for(uint i = 0; i < tokenCount; i++){\r\n            tokensId[i] = tokenOfOwnerByIndex(_owner, i);\r\n        }\r\n\r\n        return tokensId;\r\n    }\r\n}",
  "sourcePath": "D:\\werk\\coding\\NoLimit\\NoLimit Portal\\BoxingBoyzNFT\\nft\\contracts\\BoxingBoyz.sol",
  "compiler": {
    "name": "solc",
    "version": "0.8.0+commit.c7dfd78e.Emscripten.clang"
  },
  "schemaVersion": "3.4.3",
  "updatedAt": "2021-10-27T21:29:50.825Z",
  "devdoc": {
    "kind": "dev",
    "methods": {
      "approve(address,uint256)": {
        "details": "See {IERC721-approve}."
      },
      "balanceOf(address)": {
        "details": "See {IERC721-balanceOf}."
      },
      "getApproved(uint256)": {
        "details": "See {IERC721-getApproved}."
      },
      "isApprovedForAll(address,address)": {
        "details": "See {IERC721-isApprovedForAll}."
      },
      "name()": {
        "details": "See {IERC721Metadata-name}."
      },
      "owner()": {
        "details": "Returns the address of the current owner."
      },
      "ownerOf(uint256)": {
        "details": "See {IERC721-ownerOf}."
      },
      "renounceOwnership()": {
        "details": "Leaves the contract without owner. It will not be possible to call `onlyOwner` functions anymore. Can only be called by the current owner. NOTE: Renouncing ownership will leave the contract without an owner, thereby removing any functionality that is only available to the owner."
      },
      "safeTransferFrom(address,address,uint256)": {
        "details": "See {IERC721-safeTransferFrom}."
      },
      "safeTransferFrom(address,address,uint256,bytes)": {
        "details": "See {IERC721-safeTransferFrom}."
      },
      "setApprovalForAll(address,bool)": {
        "details": "See {IERC721-setApprovalForAll}."
      },
      "supportsInterface(bytes4)": {
        "details": "See {IERC165-supportsInterface}."
      },
      "symbol()": {
        "details": "See {IERC721Metadata-symbol}."
      },
      "tokenByIndex(uint256)": {
        "details": "See {IERC721Enumerable-tokenByIndex}."
      },
      "tokenOfOwnerByIndex(address,uint256)": {
        "details": "See {IERC721Enumerable-tokenOfOwnerByIndex}."
      },
      "tokenURI(uint256)": {
        "details": "See {IERC721Metadata-tokenURI}."
      },
      "totalSupply()": {
        "details": "See {IERC721Enumerable-totalSupply}."
      },
      "transferFrom(address,address,uint256)": {
        "details": "See {IERC721-transferFrom}."
      },
      "transferOwnership(address)": {
        "details": "Transfers ownership of the contract to a new account (`newOwner`). Can only be called by the current owner."
      }
    },
    "version": 1
  },
  "userdoc": {
    "kind": "user",
    "methods": {},
    "version": 1
  }
}